:10000000B89D002079680000E7B201006568000033
:1000100065680000656800006568000065680000AC
:100020000000000000000000000000006D6A0000F9
:100030006568000000000000C969000065680000F4
:10004000DD6C0000DD6C0000DD6C0000DD6C00008C
:10005000DD6C0000DD6C0000DD6C0000DD6C00007C
:10006000DD6C0000DD6C0000DD6C0000DD6C00006C
:10007000DD6C0000DD6C0000DD6C0000DD6C00005C
:10008000DD6C0000DD6C0000DD6C0000DD6C00004C
:10009000DD6C0000DD6C0000DD6C0000DD6C00003C
:1000A000DD6C0000DD6C0000DD6C0000DD6C00002C
:1000B000DD6C0000DD6C0000DD6C0000DD6C00001C
:1000C000DD6C0000DD6C0000DD6C0000DD6C00000C
:1000D000DD6C0000DD6C0000DD6C0000DD6C0000FC
:1000E000DD6C0000DD6C0000DD6C0000DD6C0000EC
:1000F000DD6C0000DD6C0000DD6C0000DD6C0000DC
:10010000DD6C0000DD6C0000DD6C0000DD6C0000CB
:10011000DD6C0000DD6C0000DD6C0000DD6C0000BB
:10012000DD6C0000DD6C0000DD6C0000DD6C0000AB
:10013000DD6C0000DD6C0000DD6C0000DD6C00009B
:10014000DD6C0000DD6C0000DD6C0000DD6C00008B
:04015000DD6C000062
:04015400FFFFFFFFAB
:1001580081F0004102E000BF83F0004330B54FEA70
:1001680041044FEA430594EA050F08BF90EA020FDD
:100178001FBF54EA000C55EA020C7FEA645C7FEA70
:10018800655C00F0E2804FEA5454D4EB5555B8BF93
:100198006D420CDD2C4480EA020281EA030382EA04
:1001A800000083EA010180EA020281EA0303362D96
:1001B80088BF30BD11F0004F4FEA01314FF4801C69
:1001C8004CEA113102D0404261EB410113F0004F7B
:1001D8004FEA03334CEA133302D0524263EB430332
:1001E80094EA050F00F0A780A4F10104D5F1200ED0
:1001F8000DDB02FA0EFC22FA05F2801841F100012B
:1002080003FA0EF2801843FA05F359410EE0A5F1FE
:1002180020050EF1200E012A03FA0EFC28BF4CF02F
:10022800020C43FA05F3C01851EBE37101F00045E5
:1002380007D54FF0000EDCF1000C7EEB00006EEBF2
:100248000101B1F5801F1BD3B1F5001F0CD349087C
:100258005FEA30004FEA3C0C04F101044FEA4452D3
:1002680012F5800F80F09A80BCF1004F08BF5FEA5A
:10027800500C50F1000041EB045141EA050130BD3A
:100288005FEA4C0C404141EB0101013C28BFB1F54C
:10029800801FE9D291F0000F04BF01460020B1FA97
:1002A80081F308BF2033A3F10B03B3F120020CDA6A
:1002B8000C3208DD02F1140CC2F10C0201FA0CF048
:1002C80021FA02F10CE002F11402D8BFC2F1200CAD
:1002D80001FA02F120FA0CFCDCBF41EA0C01904063
:1002E800E41AA2BF01EB0451294330BD6FEA0404AC
:1002F8001F3C1CDA0C340EDC04F11404C4F1200297
:1003080020FA04F001FA02F340EA030021FA04F3A8
:1003180045EA030130BDC4F10C04C4F1200220FAFF
:1003280002F001FA04F340EA0300294630BD21FA3D
:1003380004F0294630BD94F0000F83F4801306BF03
:1003480081F480110134013D4EE77FEA645C18BFF7
:100358007FEA655C29D094EA050F08BF90EA020F8E
:1003680005D054EA000C04BF1946104630BD91EA86
:10037800030F1EBF0021002030BD5FEA545C05D189
:100388004000494128BF41F0004130BD14F58004C8
:100398003CBF01F5801130BD01F0004545F0FE413C
:1003A80041F470014FF0000030BD7FEA645C1ABF71
:1003B800194610467FEA655C1CBF0B46024650EAA8
:1003C800013406BF52EA033591EA030F41F40021D4
:1003D80030BD00BF90F0000F04BF0021704730B55A
:1003E8004FF4806404F132044FF000054FF000012F
:1003F80050E700BF90F0000F04BF0021704730B5F0
:100408004FF4806404F1320410F0004548BF4042C4
:100418004FF000013EE700BF42004FEAE2014FEA19
:1004280031014FEA02701FBF12F07F4393F07F4FF4
:1004380081F06051704732F07F4208BF704793F0F7
:100448007F4F04BF41F40021704730B54FF460740A
:1004580001F0004521F000411CE700BF50EA01020D
:1004680008BF704730B54FF000050AE050EA0102B6
:1004780008BF704730B511F0004502D5404261EB26
:1004880041014FF4806404F132045FEA915C3FF467
:10049800D8AE4FF003025FEADC0C18BF03325FEA04
:1004A800DC0C18BF033202EBDC02C2F1200300FAB5
:1004B80003FC20FA02F001FA03FE40EA0E0021FADA
:1004C80002F11444BDE600BF70B54FF0FF0C4CF4C8
:1004D800E06C1CEA11541DBF1CEA135594EA0C0F7A
:1004E80095EA0C0F00F0DEF82C4481EA030621EAB5
:1004F8004C5123EA4C5350EA013518BF52EA0335F0
:1005080041F4801143F4801338D0A0FB02CE4FF0A1
:100518000005E1FB02E506F00042E0FB03E54FF0D1
:100528000006E1FB03569CF0000F18BF4EF0010EC9
:10053800A4F1FF04B6F5007F64F5407404D25FEAC5
:100548004E0E6D4146EB060642EAC62141EA555178
:100558004FEAC52040EA5E504FEACE2EB4F1FD0CBA
:1005680088BFBCF5E06F1ED8BEF1004F08BF5FEA38
:10057800500E50F1000041EB045170BD06F00046EA
:1005880046EA010140EA020081EA0301B4EB5C0497
:10059800C2BFD4EB0C0541EA045170BD41F480118F
:1005A8004FF0000E013C00F3AB8014F1360FDEBFB4
:1005B800002001F0004170BDC4F10004203C35DA90
:1005C8000C341BDC04F11404C4F1200500FA05F313
:1005D80020FA04F001FA05F240EA020001F00042B4
:1005E80021F0004110EBD37021FA04F642EB06012A
:1005F8005EEA430E08BF20EAD37070BDC4F10C0454
:10060800C4F1200500FA04F320FA05F001FA04F217
:1006180040EA020001F0004110EBD37041F1000103
:100628005EEA430E08BF20EAD37070BDC4F120050E
:1006380000FA05F24EEA020E20FA04F301FA05F276
:1006480043EA020321FA04F001F0004121FA04F21E
:1006580020EA020000EBD3705EEA430E08BF20EAEE
:10066800D37070BD94F0000F0FD101F00046400028
:1006780041EB010111F4801F08BF013CF7D041EAAA
:10068800060195F0000F18BF704703F000465200AE
:1006980043EB030313F4801F08BF013DF7D043EA7F
:1006A8000603704794EA0C0F0CEA135518BF95EA35
:1006B8000C0F0CD050EA410618BF52EA4306D1D1BC
:1006C80081EA030101F000414FF0000070BD50EADB
:1006D800410606BF1046194652EA430619D094EA65
:1006E8000C0F02D150EA013613D195EA0C0F05D14F
:1006F80052EA03361CBF104619460AD181EA0301A3
:1007080001F0004141F0FE4141F470014FF000005A
:1007180070BD41F0FE4141F4780170BD70B54FF0F5
:10072800FF0C4CF4E06C1CEA11541DBF1CEA135575
:1007380094EA0C0F95EA0C0F00F0A7F8A4EB050457
:1007480081EA030E52EA03354FEA013100F088804E
:100758004FEA03334FF0805545EA131343EA126317
:100768004FEA022245EA111545EA10654FEA0026CC
:100778000EF000419D4208BF964244F1FD0404F585
:10078800407402D25B084FEA3202B61A65EB0305E1
:100798005B084FEA32024FF480104FF4002CB6EB9E
:1007A800020E75EB030E22BFB61A754640EA0C001E
:1007B8005B084FEA3202B6EB020E75EB030E22BF5E
:1007C800B61A754640EA5C005B084FEA3202B6EB9F
:1007D800020E75EB030E22BFB61A754640EA9C005E
:1007E8005B084FEA3202B6EB020E75EB030E22BF2E
:1007F800B61A754640EADC0055EA060E18D04FEAEC
:10080800051545EA16754FEA06164FEAC30343EA8B
:1008180052734FEAC2025FEA1C1CC0D111F4801F58
:100828000BD141EA00014FF000004FF0004CB6E751
:1008380011F4801F04BF01430020B4F1FD0C88BFF0
:10084800BCF5E06F3FF6AFAEB5EB030C04BFB6EBFB
:10085800020C5FEA500C50F1000041EB045170BDEE
:100868000EF0004E4EEA113114EB5C04C2BFD4EB1B
:100878000C0541EA045170BD41F480114FF0000E9F
:10088800013C90E645EA060E8DE60CEA135594EA1B
:100898000C0F08BF95EA0C0F3FF43BAF94EA0C0F1E
:1008A8000AD150EA01347FF434AF95EA0C0F7FF493
:1008B80025AF104619462CE795EA0C0F06D152EAE7
:1008C80003353FF4FDAE1046194622E750EA4106CB
:1008D80018BF52EA43067FF4C5AE50EA41047FF4DC
:1008E8000DAF52EA43057FF4EBAE12E74FEA41023F
:1008F800B2F1E04324BFB3F5001CDCF1FE5C0DD976
:1009080001F0004C4FEAC0024CEA5070B2F1004FBF
:1009180040EB830008BF20F00100704711F0804FC2
:1009280021D113F13872BCBF01F00040704741F487
:1009380080114FEA5252C2F11802C2F1200C10FA8B
:100948000CF320FA02F018BF40F001004FEAC1236F
:100958004FEAD32303FA0CFC40EA0C0023FA02F313
:100968004FEA4303CCE77FEA625307D150EA0133E9
:100978001EBF4FF0FE4040F44000704701F00040B9
:1009880040F0FE4040F40000704700BF53B94AB938
:10099800002908BF00281CBF4FF0FF314FF0FF307F
:1009A80000F00CB8ADF1080C6DE904CE00F008F8C1
:1009B800DDF804E0DDE9022304B07047704700BFAA
:1009C8002DE9F04786468C460846089E154674462B
:1009D8001946002B40F0C1808542B2FA82F245D90F
:1009E8004AB1C2F1200300FA02FC954094402EFA65
:1009F80003F343EA0C0C4FEA154EA8B2230CBCFBD8
:100A0800FEF80EFB18CC08FB00F943EA0C439945A5
:100A180028D9EB1808F1FF3704D2994502D9A8F173
:100A280002072B44A3EB0903A4B2B3FBFEFC0EFBA5
:100A38001C330CFB00F044EA0344A04214D92C19DF
:100A48000CF1FF3304D2A04202D9ACF102032C44CA
:100A5800241A43EA07401EB1D4400023346073606F
:100A6800BDE8F0874746DDE76346F1E792BB431BE5
:100A780001214FEA154EAFB2200CB3FBFEFC0EFB72
:100A88001C330CFB07F840EA0343984561D9EB187F
:100A98000CF1FF3004D2984502D9ACF102002B4486
:100AA800A3EB0803A4B2B3FBFEFC0EFB1C330CFB48
:100AB80007F744EA0344A7424DD92C190CF1FF3338
:100AC80004D2A74202D9ACF102032C44E41B43EA46
:100AD8000040C0E7C2F120039540944020FA03F19A
:100AE8002EFA03F34FEA154E9040AFB20343B1FB21
:100AF800FEFC0EFB1C10190C0CFB07F841EA004128
:100B0800884522D969180CF1FF3004D2884502D9EA
:100B1800ACF102002944A1EB08019BB2B1FBFEFC39
:100B28000EFB1C110CFB07F743EA01439F420ED949
:100B3800EB180CF1FF3104D29F4202D9ACF102014B
:100B48002B44DB1B41EA004193E76046E3E761463B
:100B5800F7E76046A4E76346B8E7834206D916B9C3
:100B6800002108467CE7C6E900E0F9E7B3FA83F715
:100B78008FB9834201D3724508D8BEEB020460EBFB
:100B8800030301209C461EB9002169E73846FAE7AD
:100B9800C6E9004CF8E7C7F1200CBB400EFA07F590
:100BA80022FA0CF42EFA0CF1BA401C4320FA0CF38A
:100BB800B8404FEA144901431FFA84FEB3FBF9F821
:100BC80009FB18300B0C08FB0EFA43EA00439A4560
:100BD80040D9E31808F1FF3004D29A4502D9A8F1A8
:100BE80002002344A3EB0A0389B2B3FBF9F809FB1B
:100BF800183308FB0EFE41EA03418E452CD96118D3
:100C080008F1FF3304D28E4502D9A8F1020321442A
:100C180043EA0040A1EB0E01A0FB02984145CE46F5
:100C2800434602D306D14D4504D20138B9EB020E32
:100C380068EB0403002EA7D0B5EB0E0261EB0301AD
:100C480001FA0CFC22FA07F3F9404CEA0303C6E95F
:100C5800003199E74046C5E74346D9E710F8012B2C
:100C680011F8013B012A28BF9A42F7D0D01A7047E1
:100C7800034611F8012B03F8012B002AF9D170471C
:100C8800034613F8012B002AFBD1181A01387047C4
:100C980073B55E4DD5F86431996811F001011AD128
:100CA80040F6034001AA07F0D7FA0446002840F0AE
:100CB800AA800198C3681B785BB905F1D003D3E813
:100CC800AF2F02F00902D3E8EF1FC3E8E42F002C8E
:100CD800F9D110F007FB002141F2030001AA07F047
:100CE800BBFA0446002840F08E800198484EC2683E
:100CF800D2F80130C5F87230D2F80530736010F0C0
:100D0800F1FA214641F2010001AA07F0A5FA0446CA
:100D1800002878D10198C3685A7885F86A205A88DB
:100D2800A5F86C201A7985F86B20B3F80720A5F888
:100D38006E20B3F80530A5F8703010F0D3FA2146CC
:100D480041F2020001AA07F087FA044600285AD1A6
:100D580001980836C3685A1C413352F8041B9A425A
:100D680046F8041BF9D110F0BDFA09F0DBF9044686
:100D7800002848D195F884309E0610D40221254ACF
:100D880025481AF0D1FB95F876305C0648D4012145
:100D9800224A21481AF0C8FB6FF0120433E00721F9
:100DA80040F6334007F01EFA0646002800F03C8162
:100DB80007210C301DF0C3FA462303700623C0F840
:100DC80002408471447004712246C370314640F673
:100DD800334007F041FA0446A8B9012140F63140F2
:100DE80007F000FA0646002800F01E8101210C30A9
:100DF8001DF0B4FA2246314640F6314007F02CFA8D
:100E080004460028BFD0204602B070BD0000002074
:100E18007200002044380200040E020072380200FA
:100E2800002142F2030001AA07F016FA044600283E
:100E3800E9D1019BBA4EDA68D2F80100D2F8051060
:100E480003C6184610F04EFA214642F2020001AAE3
:100E580007F002FA04460028D5D1019CE368B3F8EC
:100E6800012091B249B1D97839B1A5F80421DA78CD
:100E7800114606F128001EF058FE204610F032FAFE
:100E880095F8766016F0200618D1022140F66D40DC
:100E980007F0A8F90446002800F0C68002210C30AB
:100EA8001DF04DFA0123214603704670324640F684
:100EB8006D4007F0D1F904460028A4D195F8963082
:100EC800180712D5002142F21C0001AA07F0C4F944
:100ED8000446002897D10198C368D3F80120D3F8B5
:100EE8000530C5E9382310F0FDF995F8D830990692
:100EF80024D568460DF1020107F026FA04460028B9
:100F080081D1042142F2240007F06CF9064600283A
:100F180000F08A8004210C301DF011FABDF8003071
:100F280022460380BDF802303146438042F2240055
:100F380007F092F9044600287FF465AF95F8D83099
:100F48005A0610D5002142F22A0001AA07F084F9B6
:100F5800044600287FF457AF0198C3685B7885F88A
:100F6800203110F0BFF9082142F2010007F03AF9E8
:100F78000446002858D008210C301DF0E0F995F8F7
:100F8800D810684B11F0020F0246674808BF184690
:100F98008B0695F8D93048BF40F0400013F0090F90
:100FA80095F89C3018BF40F4006003F00603CE07A4
:100FB80048BF40F01000062B08BF40F4C070002165
:100FC8001AF0D5FA2146002242F2010007F044F94E
:100FD800044600287FF417AF95F87630B5F8041169
:100FE800980624D4C9B941F2050001AA07F034F9DA
:100FF800044600287FF407AFB5F80431019C4BB9CB
:10100800E368B3F80120A5F804219A8847481146F7
:101018001EF08BFD204610F065F9082140F60140CE
:1010280007F0E0F8044660B96FF06804EBE60029C1
:10103800F3D101213E4A3F481AF076FA6FF00404D2
:10104800E1E608210C301DF07AF995F8D83002460F
:10105800D90747BF30A1D1E900014FF00051364808
:101068001AF085FA2146002240F6014007F0F4F80C
:10107800044600287FF4C7AE014601AA4FF6014096
:1010880007F0EAF80446D8B12C4A022129481AF098
:101098004BFA1AF080FC044600287FF4B4AE0AF03C
:1010A800F5F8044600287FF4AEAEAB7B002B3FF486
:1010B800AAAE082122481AF039FA07F059FEA2E62A
:1010C800019810F00FF921464FF6024001AA07F0E7
:1010D800C3F8044608B11B4AD7E70198C368B3F8B8
:1010E8000130A5F8BB3010F0FDF895F8BB305B0770
:1010F800CFD521464FF6034001AA07F0ADF808B155
:10110800114AC2E70198C3685B7885F8BA3010F0D5
:10111800E9F8BEE7AFF30080908800020080002065
:10112800D80000200E1207002E1207000801002028
:1011380096380200040E020010880002B938020036
:10114800D0000020DD38020006390200000000004F
:101158002DE9F04F3A4B85B0D3F8042392070BD50D
:10116800D3F8042142B10022C3F80421354AD3F848
:101178000431136801331360334D0024A8464FF43B
:1011880080362F4FD7F8043306FA04F919EA030F0B
:101198002DD00123A340DB432C49D1E8EF2F02EAED
:1011A8000300C1E8EC0FBCF1000FF6D122FA04F3FA
:1011B800DB0703D4264B53F82430C3B120461DF077
:1011C800A7FB11F09BFF4FF02002EFF3118382F38E
:1011D8001288BFF36F8F08EB041CDCE902AB5045A3
:1011E80071EB0B010AD283F31188BFF36F8F1035AF
:1011F80014B105B0BDE8F08F0124C3E70020D5E99C
:1012080000129FED0D7B28600D4803938CED027B47
:101218000292C0F8489320461DF07AFB039B83F3A3
:101228001188BFF36F8F0029E1D0029A5B460092C4
:1012380052468847DBE700BFFFFFFFFFFFFFFFFFC6
:10124800005001501C3D002058290020103D00206E
:1012580040510150000000002DE9F0472DED028BB0
:1012680004469FED498B4A4E84B04FF02003EFF3BC
:10127800118783F31288BFF36F8FD4F8C8508DB9E4
:10128800022104F1E0001EF060FC002843D1002395
:101298008DED008B3946029304F1D0023D4815F0DC
:1012A80039FBE2E7D4F8CC202B689542C4F8C83063
:1012B80008BFC4F8CC30D4F8E03043F00203C4F8D7
:1012C800E030EB6823F0040343F00103EB606B6844
:1012D80087F31188BFF36F8F284698474FF0200394
:1012E800EFF3118983F31288BFF36F8FEB689907C7
:1012F80023F0010219D4EA60D4F8E03023F00203A5
:10130800C4F8E03089F31188BFF36F8FDB05ACD4E4
:1013180015F05EFAA9E704F1D80500220121284654
:101328001EF074FE0028F8D1B1E7306823F00303FB
:10133800EB600028E0D00027BA46D0F800800028EB
:10134800DAD04268014695420BD1016897B97268B4
:101358003160824200D1716040F808AB14F0D2FDD0
:101368003946B8F1000F0BD0D8F8002040460F4698
:101378009046E4E739607268824208BF7760EBE71D
:101388004246F3E7AFF30080FFFFFFFFFFFFFFFFD9
:10139800E43D00204A510020F0B50C468DB004A968
:1013A80015461E4609F0A4FD07EE904AB8EE677A86
:1013B800F7EE047A67EE277A17EE900ACDE902561F
:1013C800FFF72AF89DF81270CDE900012246394648
:1013D800024817F00DFD0DB0F0BD00BFFA1E020067
:1013E80030B50C4689B06946054609F081FD2246AC
:1013F8009DF80210154817F0FBFC9DF802409CB9B7
:101408002946134D134804F0ABF928681AF0ECFC90
:10141800114B2C601B6823F00203012B02D10F48EB
:1014280014F092FE09B030BD012CFBD10C4C0D48D4
:101438001EF06FFC20681AF0D7FC00232360064BCF
:101448001B68023B012BEDD80748E9E7391F02006A
:101458002C2C0020B001002020040020A001002036
:10146800202C0020B00C002090010020034B1868AD
:1014780010B103491AF0ADBD704700BF202C002001
:10148800D41E02001FB50A4A0B46116869B1002232
:101498008DF80E3003238DF80D0000930548019256
:1014A80003AB8DF80C2004F0E5FB05B05DF804FBF8
:1014B8002C2C0020B001002000B5F7B04FF4EA72E0
:1014C800002101A81EF0E0FF0C4B01A96E93322306
:1014D800ADF8BC3140F20113ADF8043003238DF8A8
:1014E80007308DF83730012305488DF834318DF8F1
:1014F800D43104F047F977B05DF804FB54200200BA
:10150800B0010020002307B5ADF804308DF806308F
:10151800094B01A9186808F051FC014628B9074889
:1015280017F066FC03B05DF804FB10F1780FF9D0F2
:10153800034817F05DFCF5E7282C0020581F02002F
:101548006A1F0200002307B5ADF804308DF8063095
:10155800094B01A9186808F031FC014628B9074869
:1015680017F046FC03B05DF804FB10F1780FF9D0D2
:10157800034817F03DFCF5E7242C00207E1F0200ED
:10158800901F020038B50E4D0446286848B11AF07D
:1015980031FB2B682BB124F00203012B01D1FFF79B
:1015A800B1FF084D286850B11AF024FB2B6833B1FD
:1015B800023C012C03D8BDE83840FFF7C3BF38BD53
:1015C800282C0020242C00200F4B10B5044618604E
:1015D800B0FA80F0400900F075FB24F00200431EC9
:1015E8005842584101F042FAA01E01288CBF002041
:1015F800012000F039FC054B1B7823B12046BDE8DB
:101608001040FFF7BFBF10BD20040020404000205D
:101618001AB11146024817F0EBBB0248FBE700BFBE
:10162800A41F0200BD1F020030B504468DB000297A
:1016380041D104A909F05CFCBDF824209DF81250A2
:1016480007EE902AB8EE677AF7EE047A67EE277A03
:1016580017EE900A0392FEF7DFFE039ACDE9000128
:101668002946164817F0C4FB9DF8123083B9214665
:10167800134804F027F820461AF0A2FB114B022168
:10168800186020461AF02EFC20460F491AF0A1FCDB
:101698009DF81230012B0ED10C4D286808B11AF0B4
:1016A800A3FB20461AF08CFB4FF4804228600023ED
:1016B800074814F0EFFD0DB030BD00BFD41F020085
:1016C800B00100202C2C0020DC1E0200202C002061
:1016D800B00C002002484FF0805183685B691847BE
:1016E800140A0200F0B589B0404C20461EF09CF860
:1016F800002877D02269A1681368204643F08053F8
:1017080013600B683A4A1C219847002842DB4FF4C3
:10171800C03200233748CDE9002315F0D9FA3648FE
:1017280000F0D6FA354809F075FD354809F08CFD0A
:10173800002007F02FFB18F0F6FE0021084607F0FE
:10174800ABFD011E05DA11F10C0F02D02D4817F080
:101758004FFBFFF7B1FE2C4801F070F92B4C00F05D
:1017680095FB2B492B481EF0C6FA03AD0320FFF763
:101778002BFF0FCC0FC5236800212B60264D03A833
:101788002A4608F0EDFA064630B10146234817F01C
:101798002FFB002009B0F0BD012700970222204B43
:1017A80020492868043403AD1AF051FA0FCC0FC54C
:1017B80023681D4C2B602246314603A808F0D0FA56
:1017C800034610B101461948E1E700900222184982
:1017D80020681AF03CFA174B1F70174B1868FFF770
:1017E800D1FED6E74FF0FF30D4E700BF140A02005D
:1017F8000100060088090020D115000078010020AA
:1018080068010020FC1F02008D140000B00F0200C8
:1018180075140000B00C0020282C00200F200200B6
:101828002813020030130200242C00202720020075
:101838001813020040400020200400201FB50A4B66
:101848008DF80000186802238DF80110CDF804D037
:1018580002938DF80C30836801229C6801A96B23E0
:10186800A04704B010BD00BFB42E002038B5002139
:1018780004460A20FFF7E2FF48BB0C2202FB04F0F3
:10188800134B1C5C1D182401102004F0F001FFF715
:10189800D5FFE0B944F00401112001F0F401FFF78D
:1018A800CDFFA0B96978092041EA0111C9B2FFF753
:1018B800C5FF60B946210A20FFF7C0FF38B91922D1
:1018C8006B68B3FBF2F3034A1360034B187038BD1F
:1018D8004013020024040020414000202DE9F0427A
:1018E8000024324F88B0BB68314DDFF8E090019397
:1018F800019B1B6823B90A2017F099F9264627E0AF
:1019080038460DF10F01984706460028F3D19DF897
:101918000F300A2B01D00D2B3DD1CCB104F120039F
:101928000DEB030400230522294604A804F8103C03
:101938001EF0D5FD90B99DF8150078B19DF81630C8
:1019480063B93138042805D81A4B1860FFF78EFFA1
:101958003446CDE7184817F04BFAF9E7052249460F
:1019680004A81EF0BCFDA0B99DF815408CB19DF8E7
:10197800163073B9303C032C09D8104B1B680BB1D7
:101988002046984721460E4817F032FAE0E70D48FE
:10199800E1E70D48DFE70E2CB0DC04F12002661CFD
:1019A8000DEB020404F8103CD2E700BF280A02003D
:1019B80086200200280400208C200200B02E00207F
:1019C800B8200200C820020019210200B22002003B
:1019D80010B50D4B88B08DF8070018680DF1070396
:1019E80002930123039300238DF810300723CDE9D8
:1019F80005128DF81C30836802229C6802A96B23AB
:101A0800A04708B010BD00BFB42E00202DE9F04F4C
:101A180001218DB01220FFF711FF38B10121724A60
:101A280072480DB0BDE8F04F18F0BABC0A2017F0A4
:101A3800FEF844211220FFF701FF0028EED12021F3
:101A48001920FFF7FBFE0028E8D11E210720FFF729
:101A5800F5FE01460028E1D10820FFF7EFFE002837
:101A6800DCD1634B1868FFF701FF0028D6D10321AA
:101A7800604A5E4818F094FC5F4CDFF890810520BE
:101A880017F0D5F802223A2005A9FFF7A1FF03466F
:101A980028B10121594A554818F08BFCEFE79DF809
:101AA80015209DF81470120202F480721743E6D0D4
:101AB8000546DFF85C91BFB20722782006A9FFF738
:101AC80087FF064638B1012100902B464C4A47480B
:101AD80018F079FCD3E79DF81830DB08022B0ED0FC
:101AE800042B5DD0012B15D1BDF819206374E28059
:101AF800BDF81B202281BDF81D2062810AE0BDF8D7
:101B080019302380BDF81B306380BDF81D30A380D9
:101B180001232374237C002B3DD0637C002B3AD017
:101B2800A37CDFF8F0A0002B40D0D4F80CB0D9F893
:101B380000305B44C8F8003001238AF80030314B8C
:101B48001B789BB1B4F90A3059460393B4F90830AD
:101B58002D480293B4F906300193B4F90430009388
:101B6800B4F90230B4F9002017F042F92368DFF81D
:101B7800A8A009936368CDF820B00A93A3680B93D3
:101B88005AF8043B0BB108A898470136042EF7D140
:101B980000232382A3740135ABB29F428CD86EE731
:101BA800DDF81930E3600123A374B3E79AF8003035
:101BB8008BB91EF068FA4FF47A72A0FB020302FB9D
:101BC8000133C20B42EA434228235A430123C8F88F
:101BD80000208AF80030D8F800B0D9F800305B440B
:101BE800C8F80030ABE700BF30210200940E0200B5
:101BF8002804002044210200882E00205A210200D7
:101C0800762102004240002096210200AC2E0020DE
:101C180024040020414000209C2E002030B522489A
:101C2800224C8BB020601DF0FFFD38B90121204AFD
:101C380020480BB0BDE8304018F0B2BB0F238DF838
:101C48000F306B4404930023206801248DF818306A
:101C58000DF10E03CDE90734072305948DF82430E0
:101C6800836802229D6804A96B23A847034630B104
:101C7800114A21460F4818F09CFB0BB030BD9DF867
:101C88000E306C2B07D06C222146009209480B4A73
:101C980018F099FBF1E70321094A064818F089FB77
:101CA800FFF7B4FEE9E700BF8C0A0200B42E00205B
:101CB800AC210200940E0200BE210200E8210200BD
:101CC80025220200014B1870704700BF42400020D7
:101CD800014B1860704700BFB02E00200A4910B5AC
:101CE80000230C4651F8042B1AB944F82300104677
:101CF80010BD0133042BF5D104480121044A18F022
:101D080058FB6FF00B00F3E79C2E0020940E0200A6
:101D18004522020001290CBF01220022044B05497B
:101D28001A70054B054808BF194617F061B800BF7F
:101D38004450002091220200932202009E220200B9
:101D48002DE9F0471F4B1B78002B38D01E4B1B7812
:101D5800002B34D01D491E4C0B682268B0F9049042
:101D6800D51AFF2D88BF01331A4D88BF0B60B0F913
:101D78000680D3B2B0F908E0B0F90AC0B0F90C7027
:101D8800B0F90E604FEA031A05EB0313A3F80490A9
:101D9800A3F80680A3F808E0A3F80AC09F81DE81B3
:101DA8000B68013200689A4245F80A00226006D0A2
:101DB800BDE8F04700220023074814F06BBABDE8DD
:101DC800F08700BF4350002044500020B82E002068
:101DD800BC2E002043400020700E0020F0B51D4CA2
:101DE8001D4D22682B688DB093422BD01B4BD2B26D
:101DF80003EB021301AA174603F1100C16461868E4
:101E08005968083303C663453246F7D100211C22BE
:101E180005A81EF039FB124B0020CDE90637102328
:101E280005A9ADF820300DF0E9F868B923682A68EB
:101E380001339342236005D04FF4A472002309486C
:101E480014F028FA0DB0F0BD0C30FBD140F26762F7
:101E5800F4E700BFB82E0020BC2E0020434000202D
:101E6800A4130200700E0020044B05491870054B9E
:101E7800002818BF1946044816F0BABF435000207E
:101E8800B8220200DD470200BC22020008B507495B
:101E980007481DF030FF0748FFF720FFBDE808405E
:101EA8000321054A054818F07BBA00BFE51D00006C
:101EB800700E0020491D0000CF220200AC0D020068
:101EC800184BD0ED017AD3ED046AD0ED005A93EDAA
:101ED800037A67EEA66A90ED026A45EE876A93ED8B
:101EE800057A46EE076A93ED077A93ED065A27EED0
:101EF800877AD3ED014A05EE857A93ED085A67EEA5
:101F0800A47A06EE057A93ED005A45EE857AD3ED6C
:101F1800025A46EE257AC0ED016AC0ED007A80EDDE
:101F2800027A7047F82E002062EE026A41EEA16A3A
:101F38002DED068B42EEA26AF1EEE66ADFED6D4A00
:101F4800F4EEE46AF1EE10FA00F1BF806A4B81EE1C
:101F5800A66A93ED028AD3ED008AD3ED017AD3ED18
:101F6800033A28EE887A17EEA37A37EE077A28EE36
:101F7800085A77EE461A28EE236A07EEA75A08EEA3
:101F8800A76A82EE267AB7EE004A36EE066A35EE82
:101F9800055A36EE476A78EEA89A82EEA67A34EEAB
:101FA800455A69EE866A35EE475A33EEA37AB1EEA2
:101FB800009A47EE216A27EE067A37EEA72A27EE1F
:101FC80089AA09EEE17A28EE099AF8EE002A62EE6B
:101FD800065A68EE222A4AEE456A09EE457A22EE4A
:101FE800215A42EEA15A02EEC65A26EEA66A05EE1C
:101FF800A56A07EE076A05EE056AB1EEC66ADFED67
:102008003F2AB4EEE46A60EEA20AF1EE10FA20EE7E
:10201800220AC1BFC6EE866A87EE067AC5EE865AE0
:1020280085EE065A28EE206A61EE222A17EEC06A6B
:102038009FED331AF6EE001A03EEE26A65EE815A56
:10204800B0EE682A56EE215A05EE832A68EE225A27
:1020580048EE805A26EE816A43EEE05A67EEA26A9D
:1020680015EEA16A58EEA06AF0EE675A67EEA07AFC
:1020780046EE035A43EE806A27EE016A48EEA27ADA
:1020880016EEA16A48EE407A65EE016AB0EE489A0B
:1020980057EEA16A65EEA57A06EE039AB0EE637A6A
:1020A80042EE027A06EE837A49EE097A47EE077A1B
:1020B800F1EEE77AF4EEE47AF1EE10FA08D50022B0
:1020C80083ED004A5A609A60DA60BDEC068B70476F
:1020D800C2EE276AC3ED006AC5EEA76AC3ED016ABE
:1020E800C9EE276AC3ED026AC7EE276AC3ED036A21
:1020F800EBE700BFFFE6DB2EDC2E002035FA8E3C36
:102108000AD7233D38B500241825234B2A461C60DE
:10211800224B21461C60224B22481C70224B1C700B
:10212800224B1C70224B1C701EF0AEF92A46214629
:1021380020481EF0A9F9204B204DC3E900449C60BB
:102148001F4B1C22C3E900449C601E4B21462846B5
:10215800C3E900449C601EF097F94FF07E531A4A79
:1021680045F8043C1360EB60EB6100235360936017
:10217800D360164A1360164A1360164A1360164A4B
:102188001360164B164A1A60164B1C70164B1C70BF
:10219800164B1C7038BD00BF382F0020342F00208C
:1021A8004C500020B80E0020455000204A50002016
:1021B8004B500020A00E0020282F0020FC2E0020CD
:1021C8001C2F0020EC2E0020DC2E0020D82E002012
:1021D800D42E0020D02E0020CC2E0020C02E00208F
:1021E800D9899D3C48500020475000204650002087
:1021F8002DE9F04F2DED0C8B8BB0CC4B00AF1B783D
:10220800002B6FD0CA4B01681C78CA4A002C6FD1CA
:10221800116001221A70C84BC84A1A609FEDC88A1B
:10222800B0F904309FEDC74A09EE903AB0F906308C
:10223800F8EEE99A09EE103AB0F90830B8EEC99A02
:1022480008EE903AB0F90A30F8EEE88A07EE903ACC
:10225800B0F90C30F8EEE77A0AEE903AB0F90E30A1
:10226800F8EEEAAA0AEE103AB74BB8EECAAA1A78FC
:10227800DFEDB63AB64B002A40F00382B54A117832
:1022880000295DD10121C3ED009A83ED019AC3EDC8
:10229800028A117093ED00BAD3ED01BA93ED02CA28
:1022A800AD49C7EE84CA0A688AEE84DA9B2ACAEE68
:1022B80004DA2BEE23BA6BEEA3BA2CEE23CA5CDC4D
:1022C8000132B0EE483AF0EE4C2AB0EE6B2AF0EE4E
:1022D8004B1AB0EE6D1AF0EE4D0AB0EE6C0A0A60B9
:1022E800FFF722FE2C37BD46BDEC0C8BBDE8F08F06
:1022F8001368DFED9A7ACB1A08EE103AB8EE488ADE
:1023080028EE278ADFED967AB4EEE78AF1EE10FA26
:10231800116083D4DFED937AB4EEE78AF1EE10FA18
:102328003FF77CAFDFED907A834B28EE278A93ED59
:10233800007ADFED8E7A07EE278A83ED008A6FE751
:102348009FED897AD3ED005ADFED886A29EE876A16
:1023580005EEA66AD3ED015A83ED006A29EE076AF5
:1023680005EEA66A28EE877A83ED016A93ED026A84
:1023780006EE267A83ED027A8CE717EE900AFEF7CE
:102388004BF87B4E02460B46D6E90001FDF7E6FE08
:10239800C6E900011AEE900AFEF73EF802460B461F
:1023A800D6E90201FDF7DAFEC6E902011AEE100AC3
:1023B800FEF732F802460B46D6E90401FDF7CEFED9
:1023C800C6E9040119EE900AFEF726F8694C0246A0
:1023D8000B46D4E90001FDF7C1FEC4E9000119EE7E
:1023E800100AFEF719F802460B46D4E90201FDF778
:1023F800B5FEC4E9020118EE900AFEF70DF80B4687
:102408000246D4E90401FDF7A9FEDFF88481B0EEA5
:10241800483AF0EE4C2AB0EE6B2AF0EE4B1AB0EECA
:102428006D1AF0EE4D0AB0EE6C0AC4E90401FFF72C
:102438007BFDD8F8003001339B2BC8F800307FF7BC
:1024480051AFD6E9000100224B4BFEF767F9FEF7C2
:102458004DFA4A4D0022484B2860D6E90201FEF7A2
:102468005DF9FEF743FA0022434B6860D6E90401A0
:10247800FEF754F9FEF73AFA00223F4BA860D4E978
:102488000001FEF74BF9FEF731FA002208EE900A38
:10249800D4E90201384BFEF741F9FEF727FA08EEB6
:1024A800100AD4E904010022334BFEF737F9FEF78E
:1024B8001DFA68EE087A07EE100A48EEA87A47EE89
:1024C800077AF1EEE77ADFED2E6AF4EEE67AF1EEBE
:1024D80010FA5FD5E9468AB06D462A4B17EE900A86
:1024E8006B61FDF799FF00220023FDF737FE0022FC
:1024F800254BC5E90601C5E908232A46062342F803
:10250800103F002500234FF44151204801F074FF8B
:102518002946CD4618223046C8F800501DF0B4FFB1
:102528001822294620461DF0AFFFDBE6495000205F
:1025380045500020C42E0020C02E0020D9899D3C83
:10254800D9899D3C6F9264424C500020000080382D
:10255800EC2E00204B500020382F002017B7D13721
:102568000AD7A33BCDCCCC3DCDCC4C3ECDCC4C3FBB
:10257800A00E0020B80E002000806340282F002005
:102588000000FA45042302000040BF409C0E0200F0
:10259800342F0020C8EEA76A914E924BC6ED006A10
:1025A800C8EE276AC6ED016AC7EE276A2022002115
:1025B8001846C6ED026A1DF067FF4FF07E518A4B40
:1025C800021F40F8041C0161D3610321874A88482F
:1025D80017F0E6FE0122874B28681A70FDF71CFFEA
:1025E80000220023FDF7BAFD804668688946FDF79A
:1025F80013FF00220023FDF7B1FD8246A8688B4631
:10260800FDF70AFF00220023FDF7A8FDC7E9020134
:102618003068FDF701FF00220023FDF79FFDC7E9A1
:1026280000017068FDF7F8FE00220023FDF796FD13
:102638000446B0680D46FDF7EFFE00220023FDF7C3
:102648008DFD6E4692B06A4697ED027B6A4B82ED2D
:102658000A7B536197ED007B0E2382ED0C7BC2E968
:102668000689C2E908ABC2E90E45C2E9100142F881
:10267800103F002347F2C0015D4801F0BDFEB5469A
:1026880030E65E4ADFED5E6A92ED007A77EEC77A51
:1026980092ED017A7AEEC7AA92ED027A93ED006A7A
:1026A80069EEA69A3AEE47AA9FED567A29EE269A3F
:1026B80046EE079A93ED016A68EEA68A06EE079A37
:1026C80093ED026A46EE078A07F11000C3ED009AFF
:1026D80083ED019AC3ED028AC7ED077AC7ED049A24
:1026E80087ED059AC7ED068AC7ED08AA87ED09AAFE
:1026F800FFF7E6FB07F11C00FFF7E2FBD7ED062A20
:1027080097ED052AD7ED041A97ED091AD7ED080AAF
:1027180097ED070AC0EE840A80EE040AB0EE483A44
:1027280062EEA32A22EE232A61EEA31A81EE041A8E
:10273800FFF7FAFB344BF7EE008A93ED02BA6BEE23
:102748000B9A93ED019AD3ED03AAF0EE690AD3ED43
:1027580000BA49EE090A2BEE2A0A70EEA00A0BEE1F
:10276800890A78EEE00A30EE000A15F0A9FF29EE92
:102778002A0A1BEE8B0A30EE000AB4EEE80AF1EEE4
:1027880010FA2ADCFFEE007AB4EE670AF1EE10FACE
:1027980048BFB0EE670A15F0B1FE9FED1CCA4AEEBD
:1027A800AA9A20EE0CAA29EE0B0A79EEA99A0BEE4A
:1027B800AA0A78EEE90A30EE000A15F081FF144BF8
:1027C80020EE0CCA1C78134E134DBCBB012286EDBB
:1027D80000CA85ED00AA1A7084E5B0EE680ADAE747
:1027E8001C2F0020FC2E0020000080BF4723020081
:1027F8009C0E02004C50002064230200282F002069
:10280800CDCC4C3ECDCC4C3FDC2E0020E02E65429A
:102818004A500020D82E0020D42E00208FC2753DAB
:1028280000003443000034C3CDCCCC3D0000B44399
:10283800000048C20000000000004842B1EE488A8B
:102848001FED0A0A88EE000A15F0F8FF78EEC06A54
:1028580096ED007A78EEE68A28EE876A06EE8C6AAC
:102868005FED115A36EE477AD5ED007AB4EEE57A87
:1028780068EEA78AF1EE10FA46EE8A8AC4BF5FEDC9
:10288800156A37EE667A5FED196AB4EEE67A78EE85
:10289800E77AF1EE10FAF4EEE57A44BF1FED1D5A1F
:1028A80037EE057AF1EE10FAC4BF5FED205A77EEE5
:1028B800E57AF4EEE67AF1EE10FA5FED255A44BFB8
:1028C8005FED266A77EEA67AF0EEC76AF4EEE56A5F
:1028D800F1EE10FA5CBF5FED2A6A27EE267AF0EE79
:1028E800E76AF4EEE56A55BF22461FED2E7A86EDBB
:1028F800006A0022F1EE10FA5CBF5FED316A2246F1
:10290800454C58BF67EEA67AD4ED006A434848BFE5
:10291800DFED437A37EE267AD0ED006A77EEA67AB5
:10292800DFED406AB4EEE67A58BFC5ED008AF1EEF5
:1029380010FA60DC9FED3C6AB4EEC67AF1EE10FA4C
:1029480058BFB0EE476AF4EEE67AF1EE10FA55DCBD
:10295800DFED356AF4EEE67AF1EE10FA58BFF0EEE4
:10296800676ABDEEC66A87ED026AFDEEE66A97F908
:102978000810C7ED026A06EE901AF8EEE66A37EE1E
:10298800667A97F9083084ED007A07EE103AB8EEC7
:10299800C77A77EEC77AC0ED007A002A3FF4A2AC76
:1029A80051EA03023FF49EAC204A1268002A3FF421
:1029B80099AC1F4C1F4D94F90000084495F900107C
:1029C8007F2819441DDC10F17F0F1CDB40B27F29E2
:1029D80020701BDC11F17F0F1ADB49B2164B2970EE
:1029E8001E78FF2E4FF000061E703FF47BAC904718
:1029F80026702E7076E4B0EE666AA4E7DFED096A09
:102A0800AFE77F20E3E76FF07E00E0E77F21E5E7AF
:102A18006FF07E01E2E700BFD02E0020CC2E002010
:102A2800000000000000FE420000FEC2C82E002088
:102A3800485000204750002046500020074B10B552
:102A48001860FFF75FFB0648FFF748F9BDE810403C
:102A58009C230321034A044817F0ABBCC82E00206E
:102A6800F9210000AE2302009C0E020008B5084BB5
:102A78001A78187048B152B9FFF744FB054A032188
:102A8800BDE80840044817F08BBC044AF7E708BDC6
:102A980049500020E82302009C0E02000D24020089
:102AA80010B5094C0A44914200D110BD11F8013B00
:102AB80058400309E35C0001C0B243401809205C98
:102AC8001B01DBB25840EEE72B2402002DE9F04F42
:102AD80095B000AFBB61BB6F0446C3F3C0038A4621
:102AE80090F802B07A623B6141B9457800780BEB07
:102AF80080002044554517D8A0EB040AE3787B6191
:102B0800BBF1000F02D0BB6FD80716D47B6953BB4B
:102B18007B6A1BB151462046BA69984755462846F4
:102B28005437BD46BDE8F08F461C3046FEF7A8F87E
:102B3800013030440AF1010ADCE7237862683B621D
:102B48009B00FB603B6AFA6104EB83097B6A002BFC
:102B580040F0FF80C8460026554609EB0B0AD045D1
:102B680051D1D94413E0BB6F9907D1D52378994641
:102B78003B629B00FB60636804EB8909FB617B6A2D
:102B8800002B7AD15546BBF1000F4FD15E46BB6F83
:102B980013F0050F0CBF4FF0020B4FF0010B7B69D0
:102BA80009EB430ABB6F03F002037B62D145B6D041
:102BB80019F8021B19F8013C54F82380AB4B9845CF
:102BC80002D3AB4B984538D33B69002B42D0F86908
:102BD80016F06EF800283DD0E8468AB06A46A54B44
:102BE8005361FB69C2E906314FF400731384A24BA9
:102BF80042F8103F00234FF41251A04801F0FCFBAB
:102C0800023DC546D2E718F8013B54F82300FEF709
:102C180037F8FB6F01303BB1D7F880309E423EBF9A
:102C2800FB6F23F816000136054498E7BB6F13F0D5
:102C380004061CBF7E6AD944A9E73B6923B1F86939
:102C480016F036F80028C7D1BB6FDA0705D4A5EB14
:102C58000B05ABE77B6A002BA8D04046FEF710F8BF
:102C6800FB6F43B1D7F880309E423FBFFA6F431CD9
:102C780022F816300136054498E7BBF1000F6ED0F4
:102C8800BB6F13F004066DD0D846002607F140004C
:102C98005A4649461DF0D1FB7B69D9445B007B60ED
:102CA8007B6909EB4303BB60BB6F03F002033B6026
:102CB800BB684B4558D1B96F6378B86F890748BF6F
:102CC800002106EB030258BF4FEA5801C507D2B2EC
:102CD80000F19A8010F0040F14BF40460020FB61F9
:102CE8006270A070E1702046BA69F9687B6A9847FB
:102CF800051EFFF614AF3B6A41462370FB69BA69AB
:102D080063707B6984F802B0E37007F140007B6A66
:102D18009847B0F10008C0F2A480FB68AAEB0B0149
:102D2800C91A7B684846C91ABA697B6A9847002855
:102D3800C0F299804FF0000BA84408EB000507F19A
:102D4800300AB34562D30021BA6908467B6A9847BE
:102D5800E5E65E464FF0000807F1300098E75E466A
:102D6800D84699E7B04697E719F8021B3F4B19F880
:102D7800015C54F82500984202D33D4B98421DD37C
:102D88003B6923B1F86915F093FF002890D13B689F
:102D9800FBB908F1280307F1280208F1010003EB49
:102DA800020C07F1500308F1020853FA80F00CF8FE
:102DB800101C5FFA88F800F8105C79E73B692BB1C2
:102DC800F86915F075FF00287FF472AFBB6FDB0759
:102DD80009D506F1280307F12802711C9E1806F888
:102DE800205CCEB264E7BB6F58077FF561AF08F18E
:102DF800280307F1280208F1010103EB020808F88B
:102E0800105C5FFA81F853E7002068E71BF80A3086
:102E180054F8239087F82F30FB6FFBB133F81B80F1
:102E28000121BA697B6A07F12F00984700281ADB4D
:102E38000544B8F1000F06D14846FDF721FF00F11F
:102E480001081FFA88F841464846BA697B6A9847DC
:102E5800002808DB05440BF1010B72E7D7F87C80EA
:102E6800DEE745465BE6054659E600BF2409020051
:102E7800DC5B02003B240200040000015C0E02003F
:102E8800014B1B68184700BF60040020014B186005
:102E9800704700BF6004002030B585B004460D4679
:102EA8001022002168461DF0EFFA02238DF8023047
:102EB800044B2A4621466846019314F0AFFA05B040
:102EC80030BD00BF892E000080B505460E46174666
:102ED800984613F019FD03461DF016FD0446DFF869
:102EE8001890424649F8003039463046A84754F809
:102EF800090003F037FD00BF080000002DE9F04786
:102F0800058B04462807904611D4022905F00705C9
:102F180040F0CD80204616F025FA78B10138218B93
:102F2800042811D8DFE800F0C3106D859500012949
:102F38000CBF45F0100545F02005258388F311885E
:102F4800BFF36F8FBDE8F08701F0070AAA4500F0CC
:102F5800A6800027B9463E46A368002B00F0BD8036
:102F680041F00801218388F31188BFF36F8FA168AE
:102F7800002900F0BB800D68002900F0B7803346B7
:102F880052462046D1F80480C047002D76D02B68E1
:102F980029461D46F0E701F007035A1F012A1BD8EE
:102FA800002221F00701062B276889B2C4E9002214
:102FB80009D13B4603E0628B013262831B68002B18
:102FC800F9D141F002012046218316F0CBF90028FF
:102FD8007BD041F0200177E0042B0AD121F00701D2
:102FE80089B22046218316F0BDF910B141F02001C5
:102FF8002183218B01F0070AAA4550D00027B94642
:10300800AAE7236921F0070141F00601062DD3F84C
:10301800009021832DD1B9F1000F40D041F0080173
:10302800218388F31188BFF36F8F20463949C84739
:1030380029E021F00701236941F0040189B2042D38
:10304800D3F804902183E6D000274FF0040A3E46C7
:1030580082E721F00701236941F0050189B2052DB6
:10306800D3F808902183D6D000274FF0050A3E46B2
:1030780072E700274FF0060A3E466DE72B4687E7C2
:10308800B9F1000FD1D14FF02003EFF3118883F38A
:103098001288BFF36F8F238B23F008032383258BBC
:1030A800EA062ED525F01003238305F00705666987
:1030B800218B002EBFF66FAF00232768C4E90033C9
:1030C80021F0070141F001012183218B4FF0000914
:1030D80001F0070AAA457FF43FAF002F9BD041F0CB
:1030E8000801218388F31188BFF36F8F002FC7D0A1
:1030F8003D68394633465246204616F05FF92F465A
:10310800F4E7AB067FF51AAF25F02003238305F01B
:103118000705FFE6F1930100044608B54FF02002C9
:10312800EFF3118382F31288BFF36F8F10F050F919
:10313800204603F0CDFB034815F05AFE03F088FD46
:10314800FCE700BFEF2402002DE9F7430F460646CF
:103158000821C06A16F0E2FC80463C68DFF8489017
:10316800241A3C6004EA0905AC4203D8002003B0E5
:10317800BDE8F08308236A462146304616F03FFC36
:103188000028F4D16946304616F0D2FC40B1BDF8AB
:103198000230BDF8042005EA090513441D443C60CB
:1031A800A4EB0804E0E700BF0000FFFF2DE9F047AB
:1031B80004468AB000F1140738461CF018FCA06ACF
:1031C8008368DB689847E06250B9864A01218648DF
:1031D80016F030FC6FF0150528460AB0BDE8F087F8
:1031E800A06A8368DB6898470368013B1F2B01D9F5
:1031F8007E4AEBE7A06A216807AA1BF06EFA08B1BD
:103208007B4AE3E7A5892DB1089BB5FBF3F203FBE5
:1032180012550DB1774AD9E7E389012B01D8764ACF
:10322800D4E7E36A029593F804904FF0FF334FF028
:10323800FF32384612F0B8FD0821E06A16F06EFC3D
:10324800A8460646E3891FFA85FA534508D8E38954
:10325800434523D1384612F06BFD6FF02C05BBE7D0
:10326800A1892B04891B13FA81F14A4608232046B9
:10327800029116F014FC78B1204602A916F0CDFB95
:1032880008F1010808234A46204602991FFA88F8DF
:1032980016F005FC0028DAD00135D3E753450BD1E9
:1032A800029908234A462046891B16F0F8FB18B9EC
:1032B800204602A916F0B1FB204602A9FFF744FFF9
:1032C800054618B1384612F033FD85E7029B4FEAF0
:1032D80013484FEA08486360C4F80880D4E901132A
:1032E80099420FD30823204603AA16F088FB054607
:1032F8000028E7D103AB13F8012B91453DD10135E7
:10330800082DF8D1636820461B0C1B0402A9029300
:1033180016F083FB4A462046A389029916F0BFFBA4
:10332800051ECFDB63687BD04FF6FF7906EB0308F9
:10333800A3891FFA88F29B1B9A42CDF8088038D3DC
:1033480003212E4A284816F075FB2046616816F0BE
:10335800CBFB05460028B5D16368294AA1891340EB
:103368000B44A3EB4603636013402046A36016F0AA
:10337800C3FC0546002D6FD0A4E7204603A916F02C
:10338800D7FB626810B9921B6260A7E7BDF81050BE
:10339800BDF80E10E06AC4F80880294416F0BEFB98
:1033A80040449042A060EED1002DECD06FF01C0597
:1033B8007DE008234146204605AA16F020FB054675
:1033C80000287FF47FAF204605A916F0B1FB38B17D
:1033D800BDF814304B4503D1BDF81830002B6CD024
:1033E800B044A5E72C2502007C0E02004E25020001
:1033F8006B2502008325020097250200F4250200B0
:103408000000FFFF4A4620465B1A16F048FB051EDF
:10341800FFF658AF08D0E26AA36812681344A360A5
:10342800D4E901318B42EDD86168A38901EB4602EA
:103438009A429FD1DFF8BC80A26801EA08039A4249
:1034480098D0204616F050FB054600287FF43AAF86
:10345800636803EA0803A360A389A288A3EB460371
:103468009A4220D0384612F063FC0123A2892374C3
:10347800E389032100921A481A4A16F0A4FF6368E8
:103488009AB200920321184A15481B0C16F09BFFAC
:10349800A3689AB200920321144A11481B0C16F033
:1034A80092FF002598E6204616F00FFC05463846A0
:1034B80012F03EFC002DD8D08EE60D4A03210848B4
:1034C80016F0B8FA636820461B0C1B0402A9029385
:1034D80016F0A3FA2046029916F006FB49E700BF4A
:1034E8007C0E0200BA250200D1250200E325020065
:1034F8001B2602000000FFFF2DE9F04F1D46037C4C
:1035080004468946904689B053B90121634A644804
:1035180016F090FA6FF00C06304609B0BDE8F08F4F
:10352800C26A0821104616F0F9FA82462946104662
:1035380016F0F4FAA3890746A3EB8A03AB42C0F05E
:10354800AA801DB1B8F1000F00F0A580636803934D
:10355800204604AA03A9DDF80CB016F021FB0646A4
:103568000028D9D1BDF810304B4505D06268039BBF
:103578009A42EDD1E5B9CFE7204604A916F0D8FA6A
:103588000028F3D0BDF81200BDF8143075B1AB4275
:103598000ED14FEA1B41090401442B4642462046FE
:1035A80016F04AFA002803DC0646B5E7002BB3D02C
:1035B800002F3DD104F1140301934FF0FF324FF077
:1035C800FF33019812F0F0FBDFF8D8B0E3899E4290
:1035D8005ED0D4E90123F9188A422CD3ADF81A3009
:1035E800FF2306A88DF81E30ADF81890ADF81C50D2
:1035F80016F04CFA2B464246A168204616F01AFBF4
:1036080029468246E06A16F089FAA2680244A26056
:10361800BAF1000F07D1204606A916F045FB00288D
:1036280014BF8246AA46019812F082FB564673E7F9
:103638005744BFB2BEE70821E06A16F06FFA4FF6AA
:10364800FF730021ADF818308DF81E30A389ADF84E
:103658001C10111802EA0B021A44101A606006A81E
:10366800ADF81A1016F012FA06A9204616F01CFB3F
:103678002046211D16F0D1F96368204603EA0B03A2
:10368800A36016F039FB82460028CCD101369DE7AD
:103698006FF01B0AC7E76FF015063DE71825020013
:1036A8007C0E02000000FFFF2DE9FF471E46037C49
:1036B80004460F469046BDF830904BB92C4801217E
:1036C8002C4A16F0B7F96FF00C0004B0BDE8F0878B
:1036D8000821C06A16F022FAA389A3EB4003B3427B
:1036E80043D30025D4F804A0CDF804A04D45514695
:1036F800DDF804A009D9636853451ED1BDF8083028
:10370800BB421AD06FF00100DFE7204602AA01A9E8
:1037180016F046FA0028D8D1BDF80830BB4206D1C9
:10372800204602A916F004FA08B10135ADB2626864
:10373800019B9A42DAD15146E0E7BDF80C30002BE4
:10374800E0D0A945DED8BDF80A00090CB3424FEA1B
:10375800014128BF334601444246204616F04FF93E
:103768000028B2D1BDF80C00AFE76FF01500ACE748
:103778007C0E02001825020010B530B90B480C4920
:1037880016F092FB6FF0150010BD836833B9074837
:10379800084916F089FB6FF00400F5E71B6813B1C0
:1037A800BDE8104018471846EEE700BFA40E020017
:1037B800372602004826020010B530B90B480C49DC
:1037C80016F072FB6FF0150010BD836833B9074817
:1037D800084916F069FB6FF00400F5E75B6813B160
:1037E800BDE8104018471846EEE700BFA40E0200D7
:1037F800372602004826020070B508B101B132B977
:103808000B480C4916F050FB6FF0150070BD84682A
:103818000CB1E56835B90648074916F045FB6FF065
:103828000400F3E741F8040BE368BDE8704018476B
:10383800A40E0200662602004826020010B50446BF
:1038480030B91048104916F02FFB6FF0150010BD65
:10385800006830B90B480D4916F026FB6FF00100DF
:10386800F5E783680BB11B6933B90648084916F0B8
:103878001BFB6FF00400EAE7616898470028E6D16F
:103888002060E4E7A40E020092260200A3260200AC
:103898004826020070B51346044630B9104811494D
:1038A80016F002FB6FF0150070BD006830B90C48C7
:1038B8000D4916F0F9FA6FF00100F5E782680AB1D0
:1038C800956835B90648094916F0EEFA6FF0040014
:1038D800EAE70A46AC466168BDE87040604700BF49
:1038E800A40E020092260200A32602004826020027
:1038F800034A13680BB9526813600020704700BF71
:103908006404002030B50C460E4985B00291D0F809
:10391800AC110546CDE9003100F1E0014FF0FF336D
:10392800204611F079FD50B9012384F86430D5F8A8
:10393800A83123B1204605B0BDE83040184705B08E
:1039480030BD00BFA99F010038B50C461146054699
:1039580016F028FB034638B92846044916F022FB1E
:1039680003460020236038BD0120FBE7BE5A020051
:103978002DE9F04F012381460569466885B005F5B4
:103988006B77D7E8EF2F002A03D1C7E8E13F00297A
:10399800F7D10CBF1A46002240F0B180B368B16A73
:1039A80005F5E4781C1F104616F081FB84425FD8A9
:1039B800013A00F09E80B2FA82F24FF00044D440FF
:1039C80072682046073222F00302C5F86022B16A05
:1039D80016F06DFBC5F86402B36A404663430333CF
:1039E80023F0030302EB4302230103EB44030933EF
:1039F80023F0030303EBC403C5F858221A44083222
:103A0800C5F854227368C5F85C42C5F850323D4B7E
:103A1800C5E9A963316800F0DFF9044630BBD9F87D
:103A280004A0D9F81090DAE9073409F5307B012BA6
:103A3800584608BF103C1CF058F90023DAF8240057
:103A480031494FF4806201EB8021009358462346A8
:103A580012F080FB09F52C702C491CF0ECF8DAF810
:103A6800140083685C682CB96FF05704002139E0B2
:103A7800013298E74B46264ADAF81810A047044660
:103A88000028F3D1DAF8140083681B69002BEBD007
:103A98000122DAF81810984704460028E6D11D4B91
:103AA8002846C5F8A8311C4BC5F8AC311B4B03930D
:103AB800D5F810320293D5F80832CDE90083D5F84D
:103AC8006832B26AD5F8A81300F04EF90446002807
:103AD800CCD105F1E00011F04BFD0028C5F8B0038A
:103AE8000ADB0221384616F092FA204605B0BDE8F6
:103AF800F08F6FF00B04B9E76FF01504B6E76FF0BD
:103B08007704F2E7FF9F010050650020E59F010060
:103B1800D99F0100293B00008DA1010047A00100A9
:103B280013B5044640B100230122CDE90032074B0A
:103B3800D0E9091211F024FCA36E1B6823B1E06ED2
:103B480002B0BDE81040184702B010BDBE5A0200CE
:103B580013B504460846216901F56B71D1E8AF1F1A
:103B6800022910D193B1A0B10121CDE9003113464A
:103B7800D0E9091211F004FC074B984208BF6FF016
:103B88000B0002B010BD6FF00F00FAE76FF04C00A9
:103B9800F7E76FF00100F4E72EF8FFFF2DE9F74390
:103BA80088461546066906F56B73D3E8AF3F022BC6
:103BB8005FD1136823B96FF0150003B0BDE8F08337
:103BC8001B78002BF7D0D6F8A893B9F1000F33D1A2
:103BD80006F5D8774FF0FF324FF0FF33384612F032
:103BE800E3F830462A6801A9FFF7AEFE019C1CB92C
:103BF800384616F00AFADEE705F10803A3666B6992
:103C080084F86490E366E46360B1384616F0FDF921
:103C180021463046236E2A68FFF774FE0020C8F854
:103C28000040CAE72022296804F140001CF069FC22
:103C3800384616F0EAF9F1E730460F4916F0B2F9BE
:103C480004460028B7D005F1080383666B69C06392
:103C5800C366002380F864302022296840301CF0B5
:103C680050FC22460121304600F060F80028D5D0EB
:103C7800A1E76FF00F00A0E7BE5A020010B50C468E
:103C8800006900F56B73D3E8AF3F022B0FD189B100
:103C98000A4900F52C701CF00CF820461BF085FB37
:103CA8007022002120461CF0EFFB002010BD6FF0B1
:103CB8000F00FBE76FF00100F8E700BF3C2F002082
:103CC8002DE9F04F05460E4690460027D0F8B0A0E3
:103CD80085B0AAF5AE7421463046FCF7BFFFE0B9BF
:103CE800114BA4F1400B0293DAF810303246CDE9BB
:103CF800008329464FF0FF335846AAF5CE7911F0D4
:103D08008BFB60B97023012203FB079383F86420BF
:103D1800DAF80C300BB158469847703417B105B033
:103D2800BDE8F08F0127D6E7BBA101001FB51446F7
:103D380090B18AB1012912D10A4B00F1E001029336
:103D4800D0F8AC31403201934FF0FF332046009356
:103D580011F062FB04B010BD6FF01500FAE7002007
:103D6800F8E700BFBBA101002DE9F04387B00E467C
:103D7800DDE90E811446DDE910251F4630B329B36D
:103D8800DFF850C000F1E009002D08BF65469EB974
:103D9800CDE9034400F5CE74204605961BF02AFDB4
:103DA80003ABCDE900432A463B464146484611F05D
:103DB80005FC07B0BDE8F083002241460E92484654
:103DC8002A4607B0BDE8F04311F024BD6FF0150096
:103DD800EFE700BFC93C0000F0B50E46044689B0C5
:103DE80000286FD001230246C3630023D0F898103F
:103DF800364F403040F80C7C42F8301FCDE9013393
:103E08004FF0FF330093C36D1AF0B2FF304A06AB90
:103E180092E8030083E80300184611F0C3F9054649
:103E2800D8B904F1340011F09FF90546A8B939460C
:103E3800284805AA1AF078FF054670B9059B9A68C4
:103E480072B10C33D4F89400C4F8A03016F0E2F93B
:103E5800C4F8D40030B96FF00B05284609B0F0BD9E
:103E68000346EFE7D4F8940016F0D4F9C4F8D80064
:103E78000028F0D0D4F88C30D4F8A010C4F8A830BA
:103E88000423C4F8AC30C4F8C4300223A362124B34
:103E9800B4F89420D4F8D470C4F8B810C4F8D0108A
:103EA800D4F89010236204F1A403A4F8B020C4F855
:103EB800A470C4F8C010A4F8C820C4F8BC00A66157
:103EC800E362CAE76FF01505C7E700BFCD26020019
:103ED800D80F0200D72602000C1402002DE9F04783
:103EE800044607464FF00109DFF8508014B93846F8
:103EF800BDE8F08794FAA4F5B5FA85F509FA05F353
:103F08002E0108EB05156FEA030A24EA03042B7B4C
:103F1800002BEBD058F806301B694BB94644736840
:103F280004222846196807EA0A0700F051FADDE773
:103F3800284698470028D9D1F0E700BF1C0F020097
:103F480030B5002289B00F490F481CF0E3F8002271
:103F580000230024CDE906230E230C4DCDE90334BC
:103F68004FF440722846CDE90144094B09490094B1
:103F780011F066FE084928461BF01EFD204609B0D0
:103F880030BD00BFA53F0000581700208812002050
:103F98007D42000050690020DF260200014811F030
:103FA800B1BF00BFD40A00202DE9F04780461F4862
:103FB8000F4616F081F90646002830D0002528461D
:103FC800BDE8F087237B73B12368DB680BB120461B
:103FD800984723681B69D3B9636804222046196887
:103FE80000F0F6F9013610344C45EBD3B8F1000F68
:103FF800E5D0002DE2D02846FFF770FF0546002FD8
:10400800F7D000214FF4A47012F064FCF1E72046C9
:1040180098470028E0D00AFA06F31D43E2E7054670
:104028004FF0010A024CDFF80C90DDE7742F0020F6
:104038001C0F02002C0F0200014B53F820007047A0
:104048004C14020008B5034608462BB1044A136015
:1040580000F02CFC002008BD6FF01500FBE700BF46
:104068009004002010B5044C237813B9034811F0CC
:1040780049FF0123237010BD4D500020D40A0020B1
:1040880010B50446064816F017F93CB1054BD3E8BD
:10409800EF1F0139C3E8E21F002AF8D110BD00BFA5
:1040A8006C2F0020702F002000200146034BD3E81E
:1040B800EF0FC3E8E21F002AF9D170476C2F0020E8
:1040C80070B5FFF7F1FF0546074C084EB44200D320
:1040D80070BD63685B792BB123685B6813B12946AF
:1040E800204698471034F1E71C0F02002C0F0200FD
:1040F80010B5044C0449204615F026FB034B1C6000
:1041080010BD00BF4409002038140200642F0020AD
:1041180008B50023074A4FF400411370064A0748C0
:104128001360074A1360FFF78DFFBDE80840FFF7EB
:10413800DFBF00BF4E5000206C2F0020BDA2010041
:10414800702F0020014600220023014815F01DBBF6
:1041580044090020014815F0B6BB00BF44090020FF
:10416800024B0146186815F000BC00BF642F002000
:10417800014815F036BC00BF4409002070B5264B35
:104188001878002847D0FFF7E5FF054670B1234BA4
:10419800D3E8EF1F0139C3E8E21F002AF8D1204C09
:1041A800204EB4422DD32846FFF7DAFF1E4B1F4C92
:1041B8001B68002B19DD1BF066FF4FF47A72A0FB19
:1041C800020302FB0131C30B43EA4143D4E9002057
:1041D8009B1A40F2E9324FEAD13161EB0001934278
:1041E80071F1000101D3FFF76BFFD4E9003213F539
:1041F8007A7342F10002C4E90032BDE87040FFF76B
:10420800B7BF63685B7923B12368294620461B68DA
:1042180098471034C5E770BD4D500020702F00201E
:104228001C0F02002C0F02006C2F002050170020DA
:1042380070B50D4D297861B90120FFF7B5FE0B4C1B
:104248000B4EB44206D3FFF799FF0028FBD1012398
:104258002B7070BD63685B791BB1236820469B682F
:1042680098471034EDE700BF4E5000201C0F0200A5
:104278002C0F020000212DE9F0470846FFF794FEB5
:10428800044658B340F267684FF000091CF03CFB45
:104298001B4B1C4A1B58136033B11B4B1B68092B63
:1042A80002DD1A4811F02EFE0025194FDFF85CA038
:1042B80044B12046FFF712FE044618B94FF0FF3804
:1042C8004FF0FF39FFF75AFF064628B9B5B94246FD
:1042D8004B46504611F03CFE3546E9E74FF0FF38B3
:1042E8004FF0FF39D2E72B689B691BB100222846A3
:1042F800114698471035BD42F5D3E8E7054DFAE772
:1043080008000000682F0020702F0020D40A002029
:104318002C0F02001C0F020013B5184815F0CCFF33
:10432800174B1B787BB14FF02003EFF3118483F315
:104338001288BFF36F8FFFF721FF84F31188BFF353
:104348006F8F02B010BD0F4B1B68002BF9D050B90E
:10435800002200230C48CDE900234FF4004200233B
:1043680012F0B6FCEDE70928EBD107481BF0DEFE9A
:10437800064802B0BDE8104011F0C4BD702F0020FF
:104388004E500020682F002058170020D40A002023
:1043980010B5064B04461B6898472146A0600448A0
:1043A80015F071FABDE81040FFF7B6BF9004002081
:1043B80044090020044A054B9B1AB1EBD30F34BFC4
:1043C80052F8310000207047A40D02001C0F0200B3
:1043D800084B10B4C31A44681B1101332371436896
:1043E8009A7101224368196043685A715DF8044B59
:1043F800FFF738BE1C0F02002DE9F04F8FB0C1F354
:104408004A2804AF0D469146B8607B600C0DB8F1A0
:10441800000F63D000264FF0040B4FF00A0A07F193
:104428001403C7F80C80C7E907667E620193CDF8CC
:1044380008B0CDF800A007F11C0332464846F968D9
:10444800FEF744FBB0F5006F03461CD36C468AB0F8
:10445800D9F8041004AB26481A46C3E9050140F20E
:10446800FF71D9614FF400711984224B42F8103F53
:104478004FF4125133462048FFF7BEFFA5462C37AC
:10448800BD46BDE8F08FC0F30A0804F117001844D0
:1044980020F0070080083B60FFF754FE68F35325BF
:1044A800044690B13B6800F11001C7E9083607F1EE
:1044B8001403F961CDE900A3CDF808B048460F4AC6
:1044C800F96807F11C03FEF701FB68F353252A4638
:1044D80020467B68B96815F013FFD0E704F1170090
:1044E80020F007008008FFF72DFE0446EDE700BF27
:1044F800F426020004000001AC0E0200DDA2010057
:104508000EB403B503AB53F8042B014604480193DA
:1045180002F004FE02B05DF804EB03B0704700BF80
:104528001BA40100CA0605D48B064CBF02490349E7
:10453800FFF7E6BF704700BFBD5A0200BC5A020031
:104548002DE9F04F8BB09B46DDE918769DF8543085
:1045580004460593DDE916930693059B0D460892DC
:10456800002B00F0878006F00103099306F008038A
:10457800079315F0ADFE06F0020A0246002849D05E
:1045880020468449FFF7BCFF8046BAF1000F08D0E7
:1045980016F0440F40D12A4620467F49FFF7B0FF66
:1045A8008044099B5BB17D4B059A204653F8222035
:1045B8007B4B7C49002A08BF1A46FFF7A1FF079BDF
:1045C800002B55D0784B059A204653F8222077497E
:1045D800FFF796FF0546089B2BB11A4620467449FB
:1045E800FFF78EFF0544BBF1000F05D05A46204661
:1045F8007049FFF785FF05444544B9F1000F48D1DC
:10460800002F4ED1F30700F1BF8031462046FFF757
:1046180089FFB3E08046B8E7674B18680028BFD029
:10462800664B4FF47A7E1B684FF46162B5FBF3F575
:10463800B5FBF0F300FB13550EFB05F5B3FBF2FADF
:10464800B5FBF0FC3C2102FB1A3200FB1C55B2FB07
:10465800F1F30EFB05F5B5FBF0F501FB132220463F
:104668000092CDE901C552465549FFF749FF97E742
:10467800079DB0E7BBF1010F06D1B9F1000F64D176
:10468800002F7BD000250CE0B9F1000FF8D04D4881
:104698005CE04D484B4622464C4914F0D8FA002FAE
:1046A80068D0DFF83891DFF838A1102F314620465E
:1046B800B8464FF0000B28BF4FF01008FFF732FF45
:1046C8005D4545DC069B514620461A78FFF718FFE2
:1046D8004FF0010B1BF0070F03D149462046FFF7A7
:1046E8000FFFD8453BD9069B5146204613F80B20AF
:1046F800FFF706FF0BF1010BBBF1100FEAD14FF0EA
:10470800000B20463249FFF7FBFE5A46069B20461F
:104718009A5CA2F120015F2928BF2E222D49FFF7BC
:10472800EFFE0BF1010BBBF1100F1DD01BF0070FB3
:1047380003D149462046FFF7E3FED8455A46E5D857
:1047480049462046FFF7DCFEEBE71F48059DA1E739
:1047580049462046FFF7D4FE0BF1010BB0E720468F
:104768001D49FFF7CDFEC5E7069BB7EB0807434495
:1047780006939AD1059B002B7FF444AF20460BB0DB
:10478800BDE8F04F15F038BE2046054A0549FFF749
:10479800B7FE3AE7382702003C2702005C14020003
:1047A80033270200525702007014020061270200EA
:1047B800672702006B2702007C2F0020782F00203B
:1047C8004527020049A401001BA40100257100002F
:1047D8007627020078270200865A0200885A0200CB
:1047E800702702002DE9F0410F884B6805460C46FA
:1047F80090468E6886B0C7F382175BB1144A9B1A3D
:1048080043F3CF01002920DB2078C0F3C200FFF773
:10481800D1FD0346214651F8102B6088C2F34A2285
:10482800002A01EB020408BF00210022C0F30B108C
:10483800CDE90408CDE902142846314601970092D3
:10484800FFF77EFE06B0BDE8F0810023E2E700BF77
:10485800A40D020042F20F7373B58B4228BF0B46BA
:1048680005680446052168460D4A12F0ABFC064669
:10487800636828460B225B680A4915F0B0FD636837
:104888003246694628465B6815F0A9FD63681B2215
:1048980028465B68044915F0A2FD02B070BD00BF50
:1048A80049550200972702007B27020000210123B7
:1048B800064A904206D8064A01B901231360054BFF
:1048C80018607047012140085B00F2E740420F0082
:1048D800782F00207C2F0020F8B50D460446064F9F
:1048E8004618B44201D12846F8BD14F8011BBB682C
:1048F80001485B689847F4E7280A0200014B036007
:1049080000207047B814020070B5114B0D461C68A2
:10491800DCB1104B196800238B4202DB6FF00100F9
:1049280070BD224612F8106B864202D0144601333D
:10493800F2E7E06810B96FF01200F1E71AF074FFBF
:104948000028F8D000202C60EAE76FF00C00E7E7B9
:10495800D80400204415020070B588B005460C46FE
:10496800C0B269461646FFF7CFFF00281BDB009848
:10497800C8B143682268029383680195CDE903367C
:104988000023CDE906230593C56815F08FFD6DB1A9
:104998002846084901AA19F0A4FE079808B9059BFA
:1049A800236008B070BD6FF01500FAE76FF01200D1
:1049B800F7E700BFB7A401001FB507240294044C11
:1049C8000194BDF81840009418F0C0FE04B010BD62
:1049D8002A0900202DE9F0410F4B05461C680E46B8
:1049E8001746ACB14FF0FF324FF0FF330B4811F0D0
:1049F800DBF963683246D3F8088029463B462046EF
:104A0800C0470446054811F093F92046BDE8F081F7
:104A18006FF00104F9E700BFAC2F0020940A0020D2
:104A280000230360044B5A6812B9C3E900007047B9
:104A380010605860704700BFB02F0020014B18600D
:104A4800704700BFAC2F0020002330B585B0054665
:104A5800CDE9023301904FF0FF334FF0FF320B489E
:104A680011F0A2F90A4B1C684CB9284600F0E0F88E
:104A78000446064811F05CF9204605B030BD63686D
:104A880020461B6801A998472468EDE7940A00208E
:104A9800B02F00201FB5CDE9010103924FF0FF337D
:104AA8004FF0FF32094811F07FF9094B1C682CB907
:104AB800064811F03DF9204604B010BD6368204651
:104AC8001B6801A998472468F1E700BF940A0020F1
:104AD800B02F00200022024BC3E90022704700BF1C
:104AE800B02F00200022024BC3E90022FFF7F2BFDB
:104AF800B82F00202DE9F74307460C4609B10023DB
:104B08000B6000261E4DDFF880904D450FD31D4BDE
:104B18001D6885B355F8148C3846414601AA143DE2
:104B280015F008FD10B3D6B914BB2E461EE0D5F813
:104B380000803846414601AA15F0FCFC50B116B970
:104B480054B92E4606E000224046316815F0F2FCC2
:104B58000028F5D11435D8E7019B2360F1E700223E
:104B68004046316815F0E6FC0028DDD16D69D0E7D4
:104B7800019B2360D9E7304603B0BDE8F08300BF4E
:104B88002C0F0200B82F0020A40F02002DE9F047D7
:104B980084B002AFD7F8289004460D4616469846CA
:104BA8007860B9F1000F07D0D9F8001031BBD9F8F7
:104BB80004A0BAF1000F28D12046391DFFF79AFF4B
:104BC80008B3D0F808904346324629467868C84763
:104BD800C8B16D468AB002AA124BD061C2E9053449
:104BE8004FF400731384104B42F8103F00234FF426
:104BF80011510E48FFF700FCAD4604E03A1D15F0D0
:104C080099FC0028D3D1002007E0D9F808303246B3
:104C18000093294643467868D0470837BD46BDE823
:104C2800F08700BF0528020004000001FC0E020006
:104C3800F8B506460025174C174FBC4208D3174B4A
:104C48001C682CB3143CB6B9E368E3B96469F8E7A7
:104C58002EB9E3685BB9284605461434EDE700220F
:104C68003146206815F066FC0028F2D1F3E7984732
:104C7800002DF0D1F0E700223146206815F05AFCEB
:104C88000028E1D1E2E79847002D08BF0546DDE797
:104C98002846F8BD2C0F0200A40F0200B82F0020F0
:104CA80038B50C4D4FF0FF334FF0FF320A4811F082
:104CB8007BF82B783BB9FFF715FF00F06DF8044639
:104CC80010B901232B700024034811F031F8204655
:104CD80038BD00BF50500020940A00202DE9F0474D
:104CE80006468946048FDFF8ACA0013498B0A4B218
:104CF80000F10807651EADB2B5F5004F47D04A234D
:104D0800294605AA384615F0C8F804F57F543F34FB
:104D1800A4B280462146012338460DF10B0215F056
:104D2800BCF8B8F1000F014610DC002810DC338F06
:104D3800AB4209D132466B1E22F8383F4FF400418E
:104D480002233846FEF7D8FB2C46D3E7002808DCB8
:104D58002946384615F09DF82146384615F099F849
:104D6800E5E708F160030DEB03080023524608F855
:104D78004C3C05A8CDF8009003AB0397ADF8104064
:104D8800FFF704FF0028DFD018B0BDE8F087002047
:104D9800FAE700BFADA501007FB5012569462846A1
:104DA8000195FFF7B1FD044660BB284602AA01A998
:104DB800FFF7D2FD044610B110F10C0F22D1039970
:104DC800B1F5803F23D200231846009A946808441E
:104DD80084421AD30133082BF9D10E4DA982EB82F4
:104DE80053682846AB60D368EB6315F073FC044640
:104DF80040B9094E28466E60FFF712FE28466E60DD
:104E0800FFF71CFE204604B070BD9BB2E5E76FF0CB
:104E18002004F7E7C02F0020B4040020F8B50C7870
:104E28000646012C0D4619D0022C1DD014BB154F77
:104E38000A21384615F06FFC092806D9124913488B
:104E480015F080FC6FF00B00F8BD3B6803EB8002A7
:104E580032602A6843F820202046F5E700210C48F4
:104E680015F059FC0B49EAE700210B4815F053FCF3
:104E78000A49E4E705480A4915F064FC6FF0150093
:104E8800E2E700BFD00400202A280200FC0D02003F
:104E98000830002047280200003000206428020063
:104EA80082280200002213B50446019210B102685C
:104EB80002B139B91448154915F044FC6FF01500D2
:104EC80002B010BD4268C3689A4206D30E48104922
:104ED80015F038FC6FF01B00F2E701A8FFF79EFF02
:104EE8000028EDD1D4E900135A1C62601422534300
:104EF800084CCA18CC50084BC2E90130019BD3605A
:104F08004FF480331361DBE7FC0D020094280200A4
:104F1800A628020098080020FFD5010000232DE9EB
:104F2800F74F894615460446019310B1036803B14B
:104F38004AB93149314815F005FC6FF0150630467D
:104F480003B0BDE8F08F4368C2680233934206D9C4
:104F58002B492A4815F0F6FB6FF01B06EFE7DFF840
:104F6800B4A00A21504615F0D6FB0928074606D9F1
:104F78002449224815F0E6FB6FF00B06DFE7DAF864
:104F880000B029680BEBC00801A8FFF747FF0646E9
:104F980040B11D49DAF80400A8EB0101C90815F071
:104FA800D5FBCCE71421DDF804E04BF837E0A8F88E
:104FB800040088F80690D4E900035A1C4B43134FA9
:104FC8006260C750C218124BC2F80C80C2E90136A1
:104FD8004FF480331361D4E900835A1C62602C4675
:104FE80001FB03FC0FCC08EB0C070FC723683B60E1
:104FF80048F80CE0A3E700BF94280200FC0D02006B
:10500800A6280200C12802001430002094080020BD
:10501800BDD70100C80400200023F7B50C4605469B
:10502800019310B1036803B141B91F491F4815F036
:1050380089FB6FF01506304603B0F0BD1C492068A7
:1050480016F0DCF908B91B49F0E71B49206816F08F
:10505800D5F90028F7D01949206816F0CFF90028AB
:10506800F1D06A68EB689A4206D315490F4815F0E3
:1050780069FB6FF01B06DEE7216801A8FFF7CEFE8B
:1050880006460028D7D1D5E900C77B1C6B601423DE
:105098005F430FCC0CEB07050FC523682B60019B02
:1050A8004CF80730C7E700BF94280200FC0D020047
:1050B80098080020E72802009408002090080020A3
:1050C800A628020038B518B105680DB101B132B98A
:1050D8001048114915F036FB6FF0150038BD4368CC
:1050E800C468A34206D30B480C4915F02BFB6FF09C
:1050F8001B00F3E75C1C4460142043430848EC1889
:10510800606008486282C4E902010020064A2082E1
:10511800EA50E3E7FC0D020094280200A6280200EA
:10512800D1D50100C1E1000090080020F8B504467F
:1051380000254FF0FF334FF0FF3280690E4615F01F
:1051480015FB231D53F835207AB954F8352062B978
:1051580004EBC507002200233946E06910F004FD7E
:1051680030B97E6054F83500F8BD0135032DE9D11A
:105178000221044A044815F013F9A06915F0F8FA59
:105188000020F1E729290200CC0D0200F8B50446F9
:105198000D464FF0FF334FF0FF32806915F0E6FA05
:1051A80063689D4210D0E3689D421ED063699D42AA
:1051B8001DD002210F4A104815F0F2F8A06915F029
:1051C800D7FA6FF01500F8BD0026002554F8361000
:1051D800E06904EBC6071AF0C3FB44F836507D605B
:1051E800A06915F0C5FA2846EDE70126EDE7022685
:1051F800EBE700BF45290200CC0D020038B5044694
:105208000D464FF0FF334FF0FF32806915F0AEFACC
:1052180063689D420FD0E3689D4210D063699D4248
:105228000FD00221084A094815F0BAF8A06915F00C
:105238009FFA002038BD002354F83300FAE7012311
:10524800FAE70223F8E700BF76290200CC0D020036
:105258002DE9F047CD6891466A781E4C02EB420270
:10526800A4EB82042C440746884686B00146D4F84D
:105278004C029A46FFF7C2FF064648B91649174836
:1052880015F02EFB6FF01008404606B0BDE8F08719
:10529800AB7841460293EA78C369384613440193D0
:1052A800BDF838304A460093534618F04FFAAB68B9
:1052B800804643B1CDF81090AA7839468DF814206D
:1052C80004A8002298473146D4F84C0215F065FA34
:1052D800DAE700BF80FEFFFFA12902001C0E0200D2
:1052E8002DE9F74F1C469DF8343080469B079246BF
:1052F800BDF830B03BD4CE681E4D7378014603EB41
:105308004303A5EB83053544D5F84C02FFF776FF38
:10531800074648B91849194815F0E2FA6FF0100421
:10532800204603B0BDE8F08FB2780BEB040393423C
:105338001ADCC369F278514603EB020909EB0B004A
:1053480022461BF07AF8B36843B1CDF80090B278E2
:1053580041468DF804206846012298473946D5F819
:105368004C0215F01AFADBE76FF00604F6E76FF067
:105378000504D5E780FEFFFFA12902001C0E0200EC
:105388002DE9F047CD6891466A781E4C02EB42023F
:10539800A4EB82042C440746884686B00146D4F81C
:1053A8004C029A46FFF72AFF064648B9164917489D
:1053B80015F096FA6FF01008404606B0BDE8F08781
:1053C800AB7841460293EA788369384613440193DF
:1053D800BDF838304A460093534618F0B7F9AB6821
:1053E800804643B1CDF81090AA7839468DF814203C
:1053F80004A8002298473146D4F84C0215F0CDF99C
:10540800DAE700BFC0FEFFFFA12902001C0E020060
:105418002DE9F74FCE681C4673781F4D03EB430305
:10542800A5EB8305354401468046D5F84C029246E3
:10543800BDF830B0FFF7E2FE074648B917491848EB
:1054480015F04EFA6FF01004204603B0BDE8F08F57
:10545800B2780BEB040393421ADC8369F278514665
:1054680003EB020909EB0B0022461AF0E6FFB368CA
:1054780043B1CDF80090B27841468DF804206846D3
:10548800012298473946D5F84C0215F086F9DBE732
:105498006FF00604F6E700BFC0FEFFFFA129020077
:1054A8001C0E02002DE9FF476FF00F04D1F80C80A5
:1054B8000F4698F82D100646C1EB0111A4EB8104A4
:1054C80044440146D4F84C0291469A46FFF796FEAA
:1054D800054648B91049114815F002FA6FF0100650
:1054E800304604B0BDE8F08798F82F30394602936B
:1054F80098F830204369304613440193BDF83030A2
:105508004A460093534618F021F929460646D4F82E
:105518004C0215F042F9E3E7A12902001C0E020033
:105528002DE9F047D1F80C800646A8F50E7901461A
:10553800D9F84C0217461C46BDF820A0FFF75EFEBE
:10554800054640B91549164815F0CAF96FF0100418
:105558002046BDE8F087BAF1000F18D1012C19D800
:10556800387848B1012807D06FF005042946D9F8E2
:105578004C0215F012F9EBE7D8F800300BB13146C0
:1055880098472246394628461AF057FFEEE76FF04B
:105598000604EBE76FF00C04E8E700BFA12902005E
:1055A8001C0E020008B50349034815F099F96FF07D
:1055B800100008BDA12902001C0E02002DE9F04FC1
:1055C800D1F80C800546A8F50A790E4687B0014641
:1055D800D9F84C0217469B46FFF710FE044648B917
:1055E8001649174815F07CF96FF01006304607B0D9
:1055F800BDE8F08F4FF0010A00F111030193BDF8E7
:105608004030314600933A465B462846CDF808A01C
:1056180018F09CF8D8F80430064643B18DF814A069
:1056280000222946D8F80430049704A89847214650
:10563800D9F84C0215F0B1F8D8E700BFA12902004B
:105648001C0E02002DE9F74FCF680646A7F50A7928
:105658000146D9F84C0290461C46BDF830B0FFF719
:10566800CDFD054648B91549154815F039F96FF0CB
:105678001004204603B0BDE8F08F0BEB0403012BA8
:1056880018DC00F1110A224641460AEB0B001AF019
:10569800D4FE7B6843B101228DF804203146684668
:1056A8007B68CDF800A098472946D9F84C0215F038
:1056B80074F8DEE76FF00604F6E700BFA1290200E0
:1056C8001C0E0200F8B50546D0F84C02FFF72EFD77
:1056D800044630B92048214915F002F96FF00B0053
:1056E800F8BDD5F84C320021DB693C265A691AF01E
:1056F800CBFE2346012203F8202BC4E9053395F895
:105708003C110022052928BF052105F13F008A42E6
:10571800A36912D3E36195F87C210023052A28BFE9
:1057280005220C2605F5A17093420DD3D5F84C023D
:10573800214615F032F80020D2E706FB02F7C75DD4
:1057480001323B44A361E2E706FB03F1475CE169F0
:1057580001333944E161E7E71C0E0200BB2902006E
:1057680010B5D0F84C02FFF711FD044618B10349F3
:10577800034815F0B5F8204610BD00BFF629020011
:105788001C0E02002DE9F04FB1F8B8310446B3F50C
:10579800007F0D4689B000F25482D1F8BC31002652
:1057A800C0F83832D1F8C03103A9C0F8403241F608
:1057B80012038DF80C60ADF80E30FFF773FB42F65C
:1057C8004E23ADF80A3002AB0393C74B062104936E
:1057D800C64B03AA059304F50E7306934FF44033A2
:1057E800204607938DF80860FFF798FB4FF49872EE
:1057F800291D04F110001AF020FE94F83C31A2464D
:10580800052B28BF0523B3460193019B0AF13C07EA
:10581800B34200F2128104F5A076324605F59A7378
:1058280005F5BA7853F8041B434542F8041BF9D12F
:105838004FF0000994F87C31CB46052B28BF05238F
:105848000193019B4B4500F26B8104F5C07632460B
:1058580005F5DA7B58F8041BD84542F8041BF9D142
:105868004FF0000894F8BC21C246052A28BF05223B
:105878000192019B434500F29C8142F64B2300268E
:105888004FF48038D5F8B411ADF80A30C4F83012A6
:10589800DBF8041002AB04F50C720393944BC4F8C4
:1058A800341206920221204603AACDE904368DF867
:1058B8000860CDF81C80FFF731FB95F8D0315BB359
:1058C800012384F8483242F63323ADF80A3002AB9C
:1058D8000393884B04F5E077122103AA2046CDE90B
:1058E8000436CDE906788DF80860FFF717FB636882
:1058F8002C22013B84F8EC31D5F8C4313146C4F888
:10590800F03138461AF0C0FD7B4B03223946204659
:10591800C4F8E031FFF7D6FB95F8D131002B4DD014
:10592800012384F8493242F622230026ADF80A30D2
:1059380002AB0393714B04F5FA77CDE904364FF4C3
:105948008033122103AA204607938DF80860069732
:10595800FFF7E4FA63682C22013B84F82032D5F87B
:10596800C8313146C4F8243238461AF08DFD644BEC
:1059780003223946C4F814322046FFF7A3FB42F647
:105988003223ADF80A3002AB03935E4B0E21049329
:105998005D4B2046059304F50A7306934FF4403394
:1059A80003AA07938DF80860FFF7B8FA6368013B0C
:1059B80084F82832D5F8CC31C4F82C322B8803AAC5
:1059C80084F844321B0A84F84532AB78022184F803
:1059D8004632EB78002584F8473242F64A23ADF880
:1059E8000A3002AB0393494B2046CDE9043504F550
:1059F800117306934FF480338DF808500793FFF71F
:105A08008DFA42F64C23ADF80A3002ABCDE90335E6
:105A18003F4B0421059304F50F7306934FF40033AD
:105A2800204603AA8DF808500793FFF777FA204617
:105A380009B0BDE8F04F08F05FBF97F8058042F65F
:105A48004D2208F01508B8F1010F38BF4FF00108D2
:105A58004FF0000902AB03932E4B0AF1100A1221F2
:105A6800ADF80A20204603AACDE90439CDF818A0DC
:105A78008DF80890ADF81C90ADF81E80FFF74EFA2F
:105A88003C2000FB064062684946013ABA7087F834
:105A980004B02C227E7010301AF0F6FC1E4B5146D2
:105AA80047F80C3C48EA48022046FFF70BFB42F651
:105AB800081202AB0393194B204603A9CDE9043918
:105AC800ADF80A208DF808900697ADF81C90ADF84F
