:020000040100F9
:1000000040580021C52302018B900201B123020157
:10001000B1230201B1230201B1230201000000005B
:100020000000000000000000000000007D2502012B
:10003000B12302010000000015250201B1230201D5
:100040007127020171270201712702017127020144
:100050007127020171270201712702017127020134
:1000600029970201712702017127020171270201FC
:10007000DB9602017127020171270201712702013B
:10008000712702010F9702017127020171270201F6
:1000900071270201712702017127020171270201F4
:1000A00071270201712702017127020171270201E4
:1000B00071270201712702012DE9F00791E8F80785
:1000C000B2E802105B1854EB0C04B2E802104D4188
:1000D00056EB0C06B2E802104F4158EB0C08B2E8A0
:1000E000021059EB01095AEB0C0A80E8F80780412D
:1000F0000130BDE8F00770472DE9F00791E8F807F7
:10010000B2E802105B1A74EB0C04B2E802108D41E5
:1001100076EB0C06B2E802108F4178EB0C08B2E8DF
:10012000021079EB01097AEB0C0A80E8F8078041AC
:100130004042BDE8F00770472DE9F007524290E8D1
:100140007800B1E880071740DB1918EA020854EB81
:10015000080419EA020955EB09051AEA020A56EBE6
:100160000A0678C090E87800B1E8800717407B4124
:1001700018EA020854EB080419EA020955EB0905CC
:100180001AEA020A56EB0A0678C080410130BDE83F
:10019000F00770472DE9F007524290E87800B1E887
:1001A00080071740DB1B18EA020874EB080419EA01
:1001B000020975EB09051AEA020A76EB0A0678C00D
:1001C00090E87800B1E880071740BB4118EA0208C0
:1001D00074EB080419EA020975EB09051AEA020A28
:1001E00076EB0A0678C080414042BDE8F0077047D0
:1001F0002DE9F00152424FF0040890E8300091E8F8
:10020000C000A31B1340E41AF618EB1B1340ED1AB1
:10021000FF1830C0C0C1B8F10108EED1BDE8F0014F
:10022000704700BF00B592E8DC072DE9DC07B1E8B4
:10023000805702B4A7FB02510A95A8FB020B0918CC
:100240000020E7FB03105BEB000B00204041E9FBC3
:1002500002B00B91A8FB0351401800214941EAFB71
:1002600002011BEB050B0025E7FB04B568410025E7
:10027000E7FB0605694100256D41E8FB0615CDF851
:1002800030B0A9FB03B689190026EAFB03167541B5
:1002900000267641ECFB035610EB0B005FF0000BE1
:1002A000E8FB040B51EB0B015FF0000BE9FB041BB7
:1002B00055EB0B055FF0000BEAFB045B56EB0B06FE
:1002C0005FF0000B5BEB0B0BECFB046B0D90ACFBDE
:1002D0000230059C2D180020EEFB02504641002004
:1002E000E9FB04605BEB000B00204041EAFB04B03B
:1002F0005B180021E7FB04314D410021E8FB04516C
:10030000069C4E410021E8FB04615BEB010B0021E0
:10031000E9FB04B1484100214941EAFB04010E9385
:10032000A7FB0432079CB6180022E7FB04625BEBD4
:10033000020B0022E8FB04B250410022E9FB040258
:10034000514100225241EAFB0412049CED180023A3
:10035000E9FB04535E410023EAFB0463089C5BEB6A
:10036000030B0023E7FB04B358410023E8FB04031D
:1003700059410023E9FB04135A4100235B41EAFB86
:1003800004230F955DF8049B99E80006DDF80080D2
:10039000A9FB08541BEB040B0024EAFB08B4DDF8AE
:1003A000108060410024ECFB080461410024EEFB56
:1003B000081462410024E9FB0824634100246441DD
:1003C000EAFB0834DDF8048076190025EEFB0865A9
:1003D0005BEB050B0025E9FB08B568410025EAFB4E
:1003E0000805DDF8148069410025ECFB08156A4119
:1003F0000025EEFB08256B410025E9FB08356C4123
:1004000000256D41EAFB08450F96DDF80880AEFB3C
:10041000087680190026E9FB080671410026EAFBF0
:100420000816DDF8188072410026ECFB082673419F
:100430000026EEFB083674410026E9FB08467541AC
:1004400000267641EAFB0856DDF80C801BEB070B13
:100450000027ECFB08B778410027EEFB080779413D
:100460000027E9FB08177A410027EAFB0827DDF897
:100470001C807B410027ECFB08377C410027EEFB0A
:1004800008477D410027E9FB08577E4100277F414F
:10049000EAFB086708B000BD2DE9F14F87B0FFF710
:1004A000C1FEDDF81C8008F1200888E8FF00FFBCD1
:1004B00087E87F08BDE8F08F00B591E84C57A2FBB4
:1004C00002410194A2FB034524190020E2FB0650DF
:1004D0006D417F41641802940021E2FB0801A3FBF7
:1004E000034B654103950024E3FB060440417F4133
:1004F000091900246441E2FB0914FF0750EB0B00CB
:1005000004900025E2FB0A455FF0000BE3FB081BAB
:1005100049415FEA370714EB0B045FF0000BE3FB84
:10052000094B55EB0B055FF0000B5BEB0B0BE2FB94
:100530000C5BFF0F0020E2FB0EB000225141E6FBF6
:10054000061205910021E6FB084164417F416D18C8
:100550000021E3FB0A515BEB010B0021E3FB0CB133
:10056000484100214941E3FB0E010023E6FB09530A
:100570001BEB030B0023E6FB0AB358410023E6FB09
:100580000C03594100235B41E6FB0E13FF07544166
:1005900006946D417F41A8FB08265541079500222E
:1005A000E8FB09B25BEB0B0B7F4180180022E8FBF4
:1005B0000A0251410022E8FB0C125A4100235B4120
:1005C000E8FB0E230024E9FB0E340025E9FB0A15A5
:1005D00052190025E9FB0C256B410025EAFB0C357F
:1005E0006C4100256D41EAFB0E45FF075BEB060BF6
:1005F0000026ECFB0E564041494152415B416441AB
:100600006D417641AEFB0EE848F100087F00A9FB82
:100610000979784151EB0901AAFB0A7A7A4153EB37
:100620000A03ACFB0C7C7C4155EB0C0556EB0E062B
:1006300048F1000700BD00BF2DE9F14F87B0FFF77B
:100640003BFFDDF81C8008F1200888E8FF00FFBCB4
:1006500087E87F08BDE8F08F30B44FF0000310F852
:10066000014B11F8015B013A84EA050443EA0403F3
:10067000F5D1A3F101034FEAD37030BC704700BF3E
:100680004FF0000310F8012B013943EA0203F9D1BE
:10069000A3F101034FEAD370704700BF30B411F8E3
:1006A000014B12F8015B6C4000F8014B013BF6D1A5
:1006B00030BC70472DE9F00791E8F807B2E8021066
:1006C0005B1854EB0C04B2E802104D4156EB0C06DB
:1006D000B2E802104F4158EB0C08B2E8021059EB97
:1006E00001095AEB0C0A8941B3F1FF3374F1FF346D
:1006F00075F1FF3576F1000677F1000778F1000813
:1007000079F101097AF1FF3A51F100015B184C418E
:100710004D4156F1000657F1000758F1000859EB1A
:10072000D1795AEB010A80E8F807BDE8F007704775
:100730002DE9F00791E8F807B2E802105B1A74EBB4
:100740000C04B2E802108D4176EB0C06B2E8021000
:100750008F4178EB0C08B2E8021079EB01097AEBD3
:100760000C0A89415B184C414D4156F1000657F186
:10077000000758F1000859EBD1795AEB010A80E8DB
:10078000F807BDE8F007704718EB040859EB0509B6
:100790005AEB060A5BEB070B5FF0000C4CF1000C08
:1007A00018EB050859EB06095AEB070A5BEB070B38
:1007B00050EB0C005FF0000C51EB0C0152EB0C0203
:1007C00063414CF1000CB8EB070879F100097AF1AC
:1007D000000A7BEB040BA841B141A241B3416CF18B
:1007E000000CBBEB050BB041B941AA41BB416CF118
:1007F000000C4CF001068CF0020718EB060859EBD0
:100800006C095AEB6C0A7BEB6C0B70EB6C0471EBB4
:100810006C0572EB670653EB6C076CEB6C0C18EB1A
:100820000C0059EB0C015AEB0C025BF1000354F184
:10083000000455F1000556EBDC7657EB0C077047CA
:100840002DE9F14F87B0FFF7EDFCDDF81080DDF802
:100850001490DDF818A0FFF797FFBDE8000FFFF731
:1008600093FF03B05DF8048B88E8FF00BDE8F08FCC
:100870002DE9F14F87B0FFF71FFEDDF81080DDF89E
:100880001490DDF818A0FFF77FFFBDE8000FFFF719
:100890007BFF03B05DF8048B88E8FF00BDE8F08FB4
:1008A0002DE9F047A54D86B00023C41DEA7B07461D
:1008B0000E4624F00704CDE902338DF80E206A7D40
:1008C0002B788DF81020AA7D8DF809308DF8112035
:1008D0006B78EA7D8DF80A308DF81220AB782A7E8D
:1008E0008DF80B308DF81320EB786A7E8DF80C3084
:1008F0008DF814202B7995F826208DF80D300AB14B
:100900008DF80F30002E02A94FF0000A0CBF2046D0
:10091000002000F04DFE95F800806B780444D1462D
:1009200098445FFA88F85FFA8AF34345C0F0F48090
:100930000334002E494624F0030414BF002020464F
:1009400001F028F8A978044471B1E01CEB78EA7B47
:10095000002E20F003041A4414BF002020466B89A7
:10096000D2B201F08BF8044495F827308BB1697A44
:1009700079B195F82830E01C002B20F0030414BF57
:10098000FF222522002E0CBF2046002001F064F932
:100990000444297B81B1AB7823B995F827305BB14A
:1009A0006B7A4BB1E01D002E20F0070414BF00202D
:1009B000204607F09DFA0444614B1B685BB129791E
:1009C00049B1E01C002E6A7B20F0030414BF002014
:1009D0002046984704445B4B1B6853B1A97B41B147
:1009E000E01C002E20F0030414BF0020204698478E
:1009F0000444554BD3F80080B8F1000F0FD0E97BC9
:100A000069B1E01C002EAB7C20F0030418BF00206D
:100A1000009308BF20466B7C2A7CC047044495F8AD
:100A2000263063B1297951B1E01C002E2A7D20F0D7
:100A3000030414BF0020204601F044F90444E87F79
:100A400068B103346B7EA97D24F007041944334652
:100A500044F00404C9B2224601F074F9044495F844
:100A60002010002962D0E01D002E4FF0FB0220F084
:100A7000070814BF002040461EF09BFC08EB000452
:100A80001EB9FB21404619F0ADFCA97E00294FD0CC
:100A9000AB7F002B4CD0E01D002E4FF48C7220F069
:100AA000070814BF002040461EF083FC08EB00043A
:100AB0002B7E0334A97DA87F24F007041944334614
:100AC00044F00404C9B2224601F02EF904442EB9C0
:100AD0004FF48A72A97E404619F0A6FCEB6A13B166
:100AE00006B9EC62283495F8241089B1E01D002E77
:100AF00042F2107220F0070514BF002028461EF0B5
:100B000058FC2C1826B942F21071284619F092FCB4
:100B1000E01B06B0BDE8F0872B7A0AF1010AEA79FA
:100B2000A97968791EF017FC8144FCE68846A7E79E
:100B3000002ED3D1324631463046CDE7580700214A
:100B4000540000215C000021580000218FB572B6CE
:100B50001A4B1D6BE5B9BFF34F8F1949194BCA6882
:100B600002F4E0621343CB60BFF34F8F00BFFDE799
:100B7000B4FBF6F4D3B20132002CF9D103F1100228
:100B80006A4402F80C4C0A2433B901A8A847E2E7EA
:100B9000044600220A26EDE7013BDBB203F1100216
:100BA0000DEB0206C2B2B2FBF4F704FB172230329F
:100BB000B0FBF4F006F80C2CE6E700BF5807002164
:100BC00000ED00E00400FA051FB5164C02A8237AD8
:100BD0008DF80930E3798DF80830A379ADF80C3041
:100BE0006379ADF80A3017F035FA18B1B521032052
:100BF000FFF7ACFF012301A88DF8043020F058F86E
:100C000008B1B921F3E7A07C17F05CFA08B1BC2168
:100C1000EDE7607C17F050FA08B1BD21E7E704B0BA
:100C200010BD00BF5807002138B50546002842D046
:100C30001DF0C2F810B94FF0FF3038BD19F034FE86
:100C4000B0F5FA7FF7D81E4C1E482563002500F04A
:100C5000C3FA26222946204684F8345084F83550B9
:100C600084F8275084F82850E56284F826501DF057
:100C70003BFB1B2240F20113627140F21B322380C6
:100C80000123E28040F20232A37022811F222375E9
:100C9000FB2362814FF40272A383A28144F6011206
:100CA00063842282EFF3108472B601F06BF82CB9E2
:100CB00062B62046C1E76FF01500BEE72846BCE7E4
:100CC00058070021C90B000110B5002840F0A6808C
:100CD000554C94F83430002B40F09D80A1B1002A8F
:100CE0006DD00139142900F29980DFE801F00B1969
:100CF0001C2C545C75325F6270383E4B507A7D8B91
:100D00008E9182001378237001210020FFF7C8FD27
:100D1000B0F5803F80F28580012384F8353010BD26
:100D200013786370F0E79378002B48D0D378002BCA
:100D300045D013781A2B42D953781A2B3FD9136810
:100D4000C4F80530E0E71378E278934237D3A37014
:100D5000DAE71378A278934231D8E370D4E71378B6
:100D6000A27893422BD8E373CEE713783BB3537842
:100D7000013BDBB2F82B22D81388927823822B4BCD
:100D80009A70C1E71078E07417F024FCBCE7137880
:100D9000ABB12375B8E7137894F827200AB1012B7B
:100DA0000DD96372B0E713886381ADE713782371BF
:100DB000AAE794F82610137821B9012B04D86FF014
:100DC0001500ACE7002BFAD0137863739CE7137817
:100DD000082BF4D8A37397E71388FF2BEFD823735E
:100DE00092E7137863758FE713780E2BE7D8A37516
:100DF0008AE713680E49C4F81A3053684B601389A8
:100E00000B8181E71378E3757EE7137863767BE7E0
:100E10001378237678E74FF0FF3080E76FF02C00EF
:100E20007DE76FF00B007AE7580700216807002183
:100E30007207002170B50D460646F0B1E9B111F018
:100E400007041AD100F0FCF8D0B130460E4E1DF068
:100E50005FF8214686F836002846FFF721FD17F097
:100E6000E5FB96F83600F16A17F0E2F9FFF7ACFE01
:100E70000123204686F8343070BD6FF01500FBE783
:100E80004FF0FF30F8E700BF5807002110B5084CBD
:100E900094F834302BB117F0E7F994F836001DF0D0
:100EA00053F81EF0CDFB002084F8340010BD00BFC5
:100EB0005807002150B1074B03F1140253F8041BEB
:100EC000934240F8041BF9D1002070476FF01500E1
:100ED000704700BF7FBC0201074B93F8352010B567
:100EE00032B993F834401CB917F050F9204610BDC0
:100EF0004FF0FF30FBE700BF58070021074B93F886
:100F0000352010B532B993F834401CB917F052F9B6
:100F1000204610BD4FF0FF30FBE700BF580700210F
:100F200038B5094D95F835305BB995F8344044B97A
:100F300017F062F90123204685F8273085F828301C
:100F400038BD4FF0FF30FBE758070021074B93F8FF
:100F5000352010B532B993F834401CB917F0C6F8F3
:100F6000204610BD4FF0FF30FBE700BF58070021BF
:100F7000074B93F8352010B532B993F834401CB9BB
:100F800017F0A6F8204610BD4FF0FF30FBE700BF7A
:100F900058070021074B93F8352010B532B993F864
:100FA00034401CB91FF0CDFE204610BD4FF0FF307D
:100FB000FBE700BF58070021074B93F8352010B519
:100FC00032B993F834401CB91FF0BEFE204610BD64
:100FD0004FF0FF30FBE700BF58070021074B93F8A5
:100FE000352010B532B993F834401CB91FF0AFFE6C
:100FF000204610BD4FF0FF30FBE700BF580700212F
:10100000074B93F8352010B532B993F834401CB92A
:101010001FF09FFE204610BD4FF0FF30FBE700BFE2
:101020005807002107C8024B83E8070000207047DB
:1010300090070021014B9B68184700BF90070021D3
:10104000024B9868003818BF0120704790070021B4
:1010500073B5031D2D4D04462B60284605F038FA64
:101060000228064606D1294920461DF0C4FA30461A
:1010700002B070BD042842D12B78092B0AD0252B51
:101080001ED0294620461DF030FBB0F5817F2DD3C0
:10109000722112E005213E201DF080FA0028F0D1D7
:1010A000EB7801A92A79684643EA0223ADF80030BB
:1010B0001DF0B7FE0028D0D053210820FFF746FDD1
:1010C0001A213E201DF06AFA0028DAD16B686946C1
:1010D00001A8C3F30F23ADF8043011238DF80630B7
:1010E0001DF0DDFE0028B8D06521E6E70028B4D069
:1010F000A17820781DF052FA0028B8D1ADE7082871
:10110000B5D1024920461DF0AEFAB0E79C07002198
:10111000074B4FF0FF3141F6FF72C3E9001205495A
:101120000022C1E900221F21C3E90212704700BF5B
:1011300000000021A00800213F280CD801380B4BEB
:10114000C0F3421200F01F0053F8223023FA00F0DF
:1011500000F001007047FF2806D04038044BC0F370
:10116000421200F01F00EFE701207047000000214D
:10117000A0080021074B0146006849681A4603C2CF
:1011800040F48C221A6041F0107242F4FF625A60FF
:10119000704700BF000000210246024B0068516802
:1011A00003C37047A00800210246024B0068516843
:1011B00003C37047080000210138064BC0F34212F8
:1011C00000F01F0003EB82039B6823FA00F000F09D
:1011D0000100704700000021014B1860704700BFFC
:1011E000A808002110B5FFF793FF1EF079FE034B0E
:1011F00004461B6803B19847204610BDA80800218B
:1012000038B5274B0446D3F8A022D3F8A4120131F5
:1012100006D1D3F8A8324FF6FF719BB28B423DD076
:10122000D3073BD51E4DD5F8A422D5F8A832C4F873
:101230000120A4F80530C3F3072363F03F03A37133
:10124000D5F89032013323D0D5F8943201331FD032
:10125000D5F8983201331BD0D5F89C32013317D022
:10126000002001F005FE98B9D5F89002D5F8941247
:10127000D5F89822D5F89C32C4F80700C4F80B10B2
:10128000C4F80F20C4F8133001230020237038BDA8
:1012900010220021E01D1DF027F8F5E70023F4E7F8
:1012A0000000FF0170B5274D102200210446D5F83B
:1012B000A0621DF019F810220021A0181DF014F8EA
:1012C000D5F8803201330BD1D5F88432013307D100
:1012D000D5F88832013303D1D5F88C3201330BD0E5
:1012E000D5F88002D5F88412D5F88822D5F88C324A
:1012F00020616161A261E361002001F0B9FD08B9DC
:10130000F3071CD40F4BD3F8902201320BD1D3F842
:101310009422013207D1D3F89822013203D1D3F8B5
:101320009C2201320BD0D3F89002D3F89412D3F858
:101330009822D3F89C3220606160A260E3600020B4
:1013400070BD00BF0000FF0170B50C88C27CA6B262
:10135000C4F30E04531D058804F118021D44825A7B
:10136000ADB21A4443882A44013AB2FBF5F202FBBB
:10137000054292B29342044B8BBF3340B3431343B5
:101380009BB20B8070BD00BF0080FFFF10B5114BFA
:1013900000EB41041A786389B3FBF2F303FB0223E9
:1013A000013A1A44B2F5706F027928BF00231A443B
:1013B0008378B2FBF3F0194403FB1020091AB1FB48
:1013C000F3F003FB101313446FEA43436FEA5343F4
:1013D000638110BDAC080021124B10B5E0B15A7802
:1013E000022A04D040F259111720FFF7AFFB032265
:1013F0005A70026812F0070102D04FF4AF71F3E7A0
:101400005C685A602244BDE81040026003F10C00A1
:101410009A6030221CF068BF0122C3E901005A70B3
:1014200010BD00BFAC0800212DE9F041264E96F812
:1014300001E00EF0FD0CBCF1010F04D040F273117D
:101440001720FFF783FB91F80680B8F1080F02D947
:1014500040F27511F4E7CF799FB345467B1D726862
:10146000022D4FEA430402EB430338BF02256A1EF4
:101470006D421344C8F100022B408D884544013D64
:101480002A404FF6FE75AA4202D94FF4C071D7E741
:10149000BEF1030F12D106EB80001C1BC56815B10D
:1014A00040F28511CCE7C460A770228084F803C0A5
:1014B000087A09682071080C2181E08007FB02335B
:1014C0007360BDE8F08100BFAC0800212DE9F04752
:1014D000364C6378012B65D0032B04D040F2951174
:1014E0001720FFF733FBD4E901329A4202D04FF4C0
:1014F000CC71F5E7002325460B221E46994605F8D8
:101500000C3B55F82200013A58B190F804808178DC
:10151000B8F1FF0F2FD180F804908E423CBFCEB2BD
:101520000123511CEDD103B126700B2640F6FF6953
:1015300055F826709FBB013EFAD204230020637049
:10154000BDE8F08755F82CE0BEF1000F06D09EF8FC
:1015500004A0C24504BF9EF802E077440CF1FF3CB2
:10156000BCF1000FEEDA3944FF2907D903B1267028
:101570004FF49A71B4E794460027F1E70771CCE77E
:1015800007EB410308F101083846A3F80A90FFF77A
:10159000FDFE5FFA88F1BB788B42F1D8CBE74FF0C4
:1015A0000008F6E7022360686370C9E7AC08002111
:1015B0002DE9FF474A7806468B780C461344FF2BEB
:1015C00004D940F2AB111720FFF7C0FA0B78934211
:1015D00002D940F2AF11F6E7DFF8D481009038B1BC
:1015E00098F80130022B02D00020FFF7E1FF684697
:1015F000FFF7F2FE6F4A00270825637801A90192E0
:101600004FF45A7238468DF80B30ADF808204FF081
:10161000FF098DF80A508DF80C70FFF705FF664A38
:1016200001A9A378012001924FF47A728DF80B3052
:10163000ADF808208DF80A508DF80C70FFF7F4FE15
:101640005E4A01A9E378022001924FF4AC728DF852
:101650000B30ADF808208DF80A508DF80C90FFF78C
:10166000E3FE574A01A923790320019290228DF8C5
:101670000B30ADF808208DF80A508DF80C90FFF76C
:10168000D3FE637901A94F4A04208DF80B30012362
:101690000192A8228DF80C30ADF808208DF80A5080
:1016A000FFF7C2FEA379484ACDE9027701928DF88F
:1016B0000A508DF80B308DF80C901BB116F07EFFA0
:1016C000ADF8080001A90520FFF7AEFE3F4A082546
:1016D000E3794FF0FF090192802201A906208DF8DD
:1016E0000B30ADF8082000278DF80C908DF80A50CB
:1016F000FFF79AFE237A01A9354A07208DF80B30AF
:101700000223019278228DF80C30ADF808208DF874
:101710000A50FFF789FE2F4A01A9637A28460192F1
:101720004FF40A728DF80B30ADF808208DF80A508E
:101730008DF80C70FFF778FE274A01A9A37A0920DB
:1017400001924FF48C72DFF894A0ADF808208DF868
:101750000B308DF80C904FF488798DF80A50FFF714
:1017600063FEE37A01A90A20CDF804A08DF80B30BE
:10177000ADF808908DF80A508DF80C70FFF754FE04
:10178000237B01A90B20CDF804A08DF80B30ADF818
:1017900008908DF80A508DF80C70FFF745FEFFF7A2
:1017A00095FED8F80400801B04B0BDE8F08700BFA8
:1017B000AC080021F1620101A9E700016DAC000154
:1017C00049130201E18501013B1402014B1402019E
:1017D000F9670101656701014D680101F5680101C3
:1017E000034B03EB8003D86800B18078704700BFDB
:1017F000AC080021F8B54FF6FF7305460380184B7F
:1018000003EB8103D868B8B186780379B3FBF6F2AD
:1018100006FB1233DBB219460A1D00EB4202B2F995
:1018200002705488002F09DB0131B1FBF6F206FB90
:101830001211C9B28B42EFD10020F8BDFF29FBD0B5
:10184000C4F30E03C4782B8024B940F2C7211720BB
:10185000FFF77CF95380BDE8F8401DF05BBD00BF89
:10186000AC0800211E4B03EB810370B5DC68054614
:101870004CB3B0F5706F04D340F2D5211720FFF7B9
:1018800065F9014620461DF028FDFF28014604D0D9
:101890002046BDE870401DF03DBDA078B5FBF0F3DB
:1018A00000FB1353DBB219460A1D04EB4206B6F9DE
:1018B0000260002E09DB0131B1FBF0F200FB1211D6
:1018C000C9B28B42F0D1002070BDFF29FBD08B4202
:1018D00004EB42021CBF0023E3705580D8E700BF31
:1018E000AC080021094B03EB8103014610B5DC680D
:1018F00020461DF0F2FCFF28014604D02046BDE83A
:1019000010401DF007BD002010BD00BFAC08002135
:101910000F4B03EB8103014670B5DC680646204699
:101920001DF0DBFCFF28054610D0014620461DF0C7
:10193000F1FCE28823890146304643EA0243984796
:1019400020462946FFF722FD002070BD0320FCE75A
:10195000AC08002138B50E4B0446827903EB8203B4
:10196000D86808B9022038BD8278E1799142F9D26D
:101970004B1CE37100EB41035D89B3F90A30002B86
:10198000F3DBA5801DF0C6FC20600020EBE700BF64
:10199000AC08002170B5044610F003000E4603D0D9
:1019A00049211820FFF7D2F81DF03BFC054624B171
:1019B0000348314604601DF034FC284670BD00BF6A
:1019C000E80800212DE9F04F1E4C85B0924698465C
:1019D000226881460D46BDF83830BDF83CB01AB9D2
:1019E0005B211820FFF7B2F81A460A2150460393EC
:1019F0001DF0ACFA06465A46092140461DF0A6FAEB
:101A00003118074620681DF037FC039BC9F8000019
:101A100018B9286005B0BDE8F08F841952463146E8
:101A200000932C600A23D9F800001DF042FA092324
:101A3000424639462868CDF838B005B0BDE8F04FC9
:101A40001DF037BAE808002170B50E4604461DF0B7
:101A500085FA054630461DF081FA044B2A182146C6
:101A60001868BDE870401DF031BC00BFE8080021D7
:101A7000014B18681DF0F3BBE80800211144F8B5CC
:101A8000C9B21C4C10F00305217003D04E2109206F
:101A9000FFF75CF81F2B17D89B009BB2033323F092
:101AA00003039BB208B160602381282264684FF071
:101AB000010C4A438618EFB2B94212D8D01D03FB7D
:101AC000010323F00700F8BDFF2B4FEA430204D9BE
:101AD000FF339342E1DB93B2E0E77C2AFBDC7C231B
:101AE000DCE710B184F800C06660013528341E447C
:101AF000E1E700BFEC080021144A002138B5536823
:101B00001478C8B2844203D8A9210920FFF71EF82F
:101B10001846013128330578002DF2D00021012428
:101B20001289051D8170447092088161C16100F1C4
:101B30002001446821F8022B994245F8044B1444D3
:101B4000F8D100234361037038BD00BFEC080021C9
:101B50000A4B1B89B3F5FF7F4FEA930006D25A0860
:101B60009B1A9BB2984238BF18467047B3F5EE6F88
:101B700001D8FF22F4E740F27263F3E7EC0800219A
:101B80002DE9F8434B7880460C4602F0040602F03B
:101B9000FB07D3B1DFB12F4BD4F804901D89BFBB35
:101BA0000123AD084A46211D637004F1280004F1A9
:101BB0002003A761E76123F8025B984241F8042BF8
:101BC0002A44F8D10023636101E0002FE3D0002E06
:101BD0004FF0FF0318BF0226A370A3191B7D032B30
:101BE00003D1022F1CBF0136F6B2A31901221A75C8
:101BF00006F10C02002304EB860624F8123072680A
:101C00004046A370C8F80020A8F80430BDE8F88367
:101C1000002114226170A0181CF066FBB5F5FF7F4F
:101C20000FD26B08ED1AADB209EB0502C4F80490AF
:101C30002584A2606384C4F80C90A5842261E384A7
:101C4000C5E7B5F5EE6F4FF0FF03EBD940F27265D3
:101C5000EAE700BFEC0800212DE9F7431FFA82F8FC
:101C600004461FFA81F90F4616462E214A46404681
:101C70001DF06CF905465CB12E2301464246204614
:101C8000CDF800901DF015F9034B1C601F715E71BB
:101C9000284603B0BDE8F083F8080021024B5A79CA
:101CA00019791868FFF7D8BFF8080021014B1868A8
:101CB000704700BFF8080021014B5879704700BFFA
:101CC000F80800212DE9F74305460C46F7200521C9
:101CD00090461DF03BF9064685B115F0030703D089
:101CE0008F211920FEF732FFDFF83890C9F8105025
:101CF000A5B2A9F81400BBB29D4204D806FB04F0BB
:101D000003B0BDE8F083B9F814C00523D9F810007A
:101D1000F7223146CDF8008007FB0C0001371DF09B
:101D2000C8F8E8E70809002107B5CDE900230B460C
:101D300003490246081D1DF05DFC03B05DF804FB7D
:101D40002009002113B5064CCDE900230B460246BD
:101D500004F1080104F10C001DF04CFC02B010BDB0
:101D600020090021024B0146D3E900201DF0AEBA44
:101D700020090021024B0146D3E902201DF0A6BA3A
:101D800020090021144B012200214FF0FF309A60FE
:101D9000C3F80012C3F80803C3F80015C3F80425FC
:101DA0009A60C3F808034FF48040C3F80015C3F8E5
:101DB000042503F5805341F6F8720849C3F8082555
:101DC000C1F88000BFF34F8FBFF36F8FC1F8800160
:101DD000C3F80825704700BF00E0004100E100E0C3
:101DE0008C463822064B00B50CF8032B8E4607CBE9
:101DF000CEF80300CCF80410CCF808205DF804FB02
:101E00003C09002170B5224DE96AAC6A0B78A83410
:101E100003F00303032B1AD16B8E01202A8E034398
:101E2000207442F400626B866B6B2A869847E96ADD
:101E3000237E013B18BF012323764B7833B1D4E9CD
:101E40002232013342F10002C4E9223270BD002B7C
:101E5000EED04B78002BEBD02A8E42F400622A861B
:101E6000AA6B002AF2D0FB2B08D895F83C3063B15E
:101E70006B6B00212020BDE87040184795F83D307D
:101E800043F0100385F83D3070BD01230370CFE7A8
:101E90003009002110B5114C17F01AFA16F062FD46
:101EA0000021636B208E9847237E4BB9236C94F8F6
:101EB0003D1094F83E009847002384F8443010BD4C
:101EC00094E8070004F10C0383E8070002220449A8
:101ED00004F1190004F098FCE8E700BF3009002184
:101EE000E11D0001034B93F8443003B97047FFF73D
:101EF000D1BF00BF30090021174A92F824307BB1CE
:101F000080B992F84810C9060ED5FBB10021538E56
:101F10009B0713D5536DDB78981E18BF01207047BF
:101F20000128EED000207047D16C906B0978C1F386
:101F30000011C1F1010120B1002BE8D131B1012024
:101F40007047B2F850000028F9D1F5E7508E0038FC
:101F500018BF0120704700BF3009002108B5094BA8
:101F600093F84420022A07D1DA7A42F00102DA72A9
:101F7000BDE80840FFF78EBF40F23D212720FEF765
:101F8000E5FD00BF30090021F8B5234C0646A56ADF
:101F9000E36C95F8CB2005F1A80794F85800E362AC
:101FA0000AB1031DD8B2FF2895F8711004D11EB9EB
:101FB00095F87030994203D016F0EEFE97F8232082
:101FC0001AB3E06D17F0ACFD94F82430E16D003BDE
:101FD000E06A18BF012384F87830D7E92223C4E9E6
:101FE0001C2316F065FC3EB995F8710010F00C004A
:101FF00018BF282017F0F2FD95F87010002017F098
:1020000051FE022384F84430F8BDE06A17F088FDE1
:1020100016F0A8FCE7E700BF3009002170B57F4C3F
:10202000002382B0A56A8DF8053095F8CB2005F124
:10203000A80694F858300AB10433DBB2FF2B11D153
:1020400080B995F8713095F870108B4202D0FF205E
:1020500016F0A2FEB37D032B00F2DA80DFE803F076
:102060000520847495F87010F1E794F8BA306C4844
:10207000ADF80630A5F8603000F062FE002840F0B0
:102080009A800DF105020DF10601D4F8BC001CF098
:1020900087FF606520B196F86130002B00F0A280C8
:1020A000604B18466365F37DDB0003F0080203789C
:1020B00003F0F3031343327E920002F00402134351
:1020C00003F0EF0203F00303032B027002D1C37885
:1020D000022B12D0D4F8BC001CF0E3FF48B9606DAD
:1020E000027802F00303032B07D000F051FE002812
:1020F00071D1606D027842F01002027096F82230C1
:1021000013B14378002B43D117F00AFD16F02AFCD7
:10211000666D04F02BFE20B1337803F00303032B2C
:102120005CD095F87110012017F0BCFD626D0123A1
:102130003D491088927884F8C030A4F8480084F8AB
:1021400044308A7002B070BD354800F0F9FD0028B7
:1021500059D0606DC3781B2BA5D1012105F110006A
:1021600016F050FE606D9EE7B5F860300DF1050287
:102170000DF10601D4F8BC00ADF806301CF010FFDC
:10218000606500288FD140F2D6212720FEF7DEFCC3
:10219000E06D17F0C5FC94F82410E06DD6E920231B
:1021A000B1FA81F6616D7609C4E91C2384F8786080
:1021B00016F07EFBACE7638E8020616D43F08003F8
:1021C000626B638690470121606D7174C3781B2B2D
:1021D0007FF469AFC2E7606D02788EE7012018F0E6
:1021E00005FB9EE79DF805302BB1BDF8061003F006
:1021F000A3FF606D57E7038001218370606D03F0DA
:102200000DFE606DF1E740F2DF212720FEF79EFC16
:102210004FF43B712720FEF799FC00BF30090021E5
:1022200084090021B8090021780900212DE9F04135
:10223000444C82B006460F4694F84420A56A012A11
:102240005FFA82F805F1A80577D12B7C6BB1638E1C
:102250000021042043F0040329746386636B9847CC
:1022600094F824300BB185F81280616D0A7802F081
:102270000302032A44D04B78EBB10223AB7595F8E7
:10228000233023B3A36A93F8711094F824300139F2
:10229000003B18BF012384F87830D5E92223C4E934
:1022A0001C2394F85820072942D8DFE801F03E09A2
:1022B00041074141413B0123AB75E0E74FF0030883
:1022C00000214346012000911F4916F08DFA012F8D
:1022D00011D186B9D4F8C4303046984758B194F833
:1022E0003D3043B93046FFF707FE20B902B0BDE8E4
:1022F000F041FFF749BE02B0BDE8F041FFF7CABDAB
:10230000AB7D63B9638E022043F002036386636B87
:102310009847616D0B7803F00303032BABD10323C4
:10232000AB75ACE74FF00208CAE74FF00008C7E70B
:1023300040F2B9310620FEF709FC40F25C4127204B
:10234000FEF704FC30090021900900210C4B0D4AD6
:1023500070B50D4C1A6094F8443063B906460D46CA
:1023600003F0FF02012104F18800227603F056FDFC
:10237000E664E56570BDDF212720FEF7E7FB00BFBF
:10238000600000217C2C000130090021044A92F8F1
:10239000443003F0FF000BB9107670470C207047F3
:1023A00030090021024B012283F83C20704700BF16
:1023B000300900212DE9F04385B0BF4C02AD85E81E
:1023C000030094F844100C98002940F0E181002BA0
:1023D00018BF002A00F0DC81002800F0D98101F04C
:1023E000FF06C4F8C430206404F12403626384F857
:1023F0003C6084F83D6084F8C86084F83E6084F8EE
:10240000C0606686268695E8030083E80300A56A17
:1024100016F02CFD16F0A6FA95F9740005F1A80740
:1024200016F040FEA86A17F05FFB286A16F040FE1F
:1024300097F8330016F046FE94F82430002B00F095
:10244000B08004201CF030F8EA6941F64B539A4200
:1024500094BF4D20962016F055FC95F87110012080
:1024600017F04CF8002800F0B080944B186817F073
:1024700041FB6B69C4F8BC30AB69C4F8CC3095F84B
:102480007F301BB9A96F002940F0D380D7F89C306A
:10249000DFF82CC2D7F89000D7F89410D7F898201E
:1024A000ACE80F00D7F8A030C4F87930D7F8A430E2
:1024B000CCF80D3094F82430002B40F08980A36ACA
:1024C00093F8C520263A012A40F2DD8093F8C62011
:1024D000262A00F0D88093F87080B8F1040F08BF66
:1024E0004FF0080805F138094146484604F014FB4E
:1024F000414602F00FFCB5F84430024695F87110E1
:102500004846934228BF134684F8BA3004F0FEF9D7
:1025100095F8711097F823900829B5F84C8008BFFA
:10252000042102F0F7FBB9F1000F01D1043080B2B1
:10253000404528BF40465FFA80F884F8D08004F018
:1025400015FC20B1B8F12B0F38BF4FF02B0894F8D1
:10255000241084F85880002940F0D48097F8223065
:10256000002B00F0B780012395F87060E86984F8CB
:102570007830013ED7E92023C4E91C2341F64B53B0
:10258000984294BF04200020072E00F2E880DFE884
:1025900016F09A00EB00E6009900E600E600E6007F
:1025A000ED0003201BF080FFEA6941F64B539A428D
:1025B00094BF4D20962016F0A5FB95F870100020D2
:1025C00016F09CFF00287FF450AF05B0BDE8F08303
:1025D000A26A92F8C530A3F1260101293AD992F8EE
:1025E000C600262836D0A3F121011346012900F2A6
:1025F000CB80242840F08D8092F86E3192F86910DB
:1026000092F870800B405A0700F18A8013F00102A3
:1026100040F0B2809B077FF565AFB8F1040F7FD023
:10262000B8F1080F7CD0B8F1010F18BF4FF00208C5
:1026300058E7B7F84E20BB8A93427FF427AFB5F82E
:102640007C2013440122A7F84E3095F87E0018F044
:10265000A9F81BE792F8B63392F87080002B3FF48C
:1026600041AFB8F1080F5BD0B8F1040F58D0082B78
:1026700056D0042B54D0B8F1010F01D0012B18D142
:102680004FF001082EE793F81A2393F87080002A80
:102690003FF428AFB8F1080F42D0B8F1040F3FD093
:1026A000082A3DD0042A3BD0B8F1010FE8D0012A16
:1026B000E6D04FF0020815E7300900216000002144
:1026C00090090021032100220B4636490092FB228B
:1026D00016F08AF80120FFF7A1FC334BD3F85035F0
:1026E00023F00803032B58D00023B98A97F833202E
:1026F000A360C4E900332B8861802271238005B078
:10270000BDE8F08397F823306BB90120FFF73CFC5C
:10271000E3E792F86E3192F8708059077FF576AF53
:102720004FF00808DEE695F871300122D7E9220162
:10273000013B84F87820C4E91C01072B0FD8DFE89F
:1027400003F005170E040E0E0E1903260021334662
:10275000424601200091134916F046F8D5E740F2B1
:10276000B9310620FEF7F2F90121ACE70221AAE710
:102770000126EBE70226E9E7B8F1080FD0D0B8F15F
:10278000040FCDD09046ADE624287FF4A4AE33E705
:102790004FF4A8712720FEF7D9F94FF4FD712720D7
:1027A000FEF7D4F9900900210080004110B5184CC3
:1027B00094F84430EBB194F824308BB194F8443061
:1027C000022B20D1A36AD3F8F00217F0DDF9A06A3A
:1027D00090F87F3003F0FF020BB9836F63B910BD2F
:1027E00094F84430012BF2D040F20F212720FEF75D
:1027F000ADF9FFF74FFBEAE7114690F87E00BDE820
:10280000104017F0CFBF40F213212720FEF79EF9AA
:1028100030090021FFF73EBB014B1876704700BF1F
:1028200030090021014B93F8C000704730090021A6
:10283000024B188EC0F38020704700BF3009002182
:10284000014B93F8C8007047300900212DE9F04191
:102850001E4F820782B00546BC6A0E4604F1A804EA
:1028600011D4EB070CD5217ED4E92232013342F199
:1028700000020129C4E922320CBF00230123237680
:1028800002B0BDE8F081BB6BDBB1B7F85020184651
:10289000F96A033291F801801BF0B0FC0DF10202DD
:1028A00001A9F862D7F8CC001CF0B1FC01981CF02B
:1028B00098FC012230604146D7F8CC001CF03DFC6A
:1028C000CFE740F24D412720FEF740F930090021C3
:1028D0002DE9F047002386B0B54C06468DF80F3041
:1028E0000F46A56ACDE9043394F84430A835022B8D
:1028F0005FFA83F840F0B281238E13F0400106D1D5
:10290000636B40209847238E43F040032386002EBC
:102910005AD095F82330002B40F02B81D4F82CA00E
:102920009AF8011089B2A4F85010002940F03881BB
:102930000023A3639AF80000238EE97DC0F3800290
:1029400043F480739142238600F0DF80A26A94F8FA
:10295000241002F1A80999F81620EAB1022A00F021
:102960006381002389F8163021B199F81220002ADA
:1029700040F04F8199F81130002B40F0268199F8F2
:102980001730D4F82CA0012B0CBF0023012389F8A9
:102990001730238E9AF8000043F48062C0F3C0031E
:1029A0004FF0000922862A7E9A4200F0B58004F09A
:1029B000DDF9C0B19AF8003003F00303032B12D104
:1029C000012017F013FF0EE095F82320002A40F0B5
:1029D000CC8043F400734FF00009238694F8C8308C
:1029E000013384F8C83095F822305BB394F8243072
:1029F000A26AB3FA83F392F870105B09D0690139C7
:102A000084F8783041F64B53984294BF042000205C
:102A1000D5E92023C4E91C23072900F2F280DFE86E
:102A200011F0A1000800F0009E00F000F000F0009E
:102A30000A004FF00108002243465E490092FB2243
:102A400015F0D2FE002F49D194F8C830012B45D89B
:102A5000D4F8C4300120984700283FD094F83D3086
:102A6000002B3BD10120FFF747FA0746002835D15C
:102A7000FFF7D4FA9DF80F30002B36D1B9F1000FD3
:102A800008D094F82430002B60D1B4F80930013319
:102A9000A4F8093076B3B4F805300022013384F885
:102AA000C820A4F80530444805F022F9049840B144
:102AB0001CF097FBA16A002308220130037203F087
:102AC00083FE059B33B1A16A00201022187205987D
:102AD00003F07AFEA7B906B0BDE8F08717F04CF90D
:102AE0009DF80F300127002BC8D005A90220FFF761
:102AF000ADFEC3E7B4F807300133A4F80730D2E7DE
:102B0000FFF7C8F906B0BDE8F087C0F3C0032A7E1E
:102B1000B1469A427FF44BAF04F028F900284DD01B
:102B2000D4F82CA09AF8003003F00303013B012BEA
:102B300044D89AF8012094F8D0309A423ED994F8BB
:102B40003D3043F0100384F83D3030E7B4F80530F1
:102B5000B4F80710AA8A0B4313439BD095E74FF0B4
:102B6000030868E74FF0000865E715F079FF238E4A
:102B70002FE715F03BFF15F01DFFD4F82CA09AF8B5
:102B8000011000287FF4CEAE00293FD09AF8003023
:102B90002A7EC3F3C0039A425AD089B2A4F85010D7
:102BA000D4F8CC001CF09EFAD4F82CA0A063C1E6A7
:102BB0003009002190090021540900210DF10F0076
:102BC000FFF720F9D4F82CA0F1E64FF0000A89F8BD
:102BD00011A000F0C7F800284AD0638E51460820A3
:102BE00043F008036386636B9847D9F8803001335C
:102BF000C9F88030D9F8843043F10003C9F8843033
:102C0000BDE640F2B9310620FDF7A0FFA4F8501050
:102C10008EE6194689F81230638E102043F01003B7
:102C20006386636B9847A5E604A9D4F8BC001CF042
:102C3000D9F9C0B1D9F8803094F824100133C9F81B
:102C40008030D9F8843043F10003C9F8843088E635
:102C5000012384F83E30FFF71DF93CE740F2CF41F5
:102C60002720FDF773FF40F2CB312720FDF76EFFE1
:102C700040F2E2312720FDF769FF00BF5D1F000130
:102C8000D12800012D220001E51E0001044B4FF662
:102C9000FF7200219A86DA8683F832101A8770470D
:102CA000040A0021044B4FF6FF7200219A86DA864F
:102CB00083F832101A877047040A0021054B9A8E58
:102CC000824205D100214FF6FF7283F832109A86B6
:102CD000704700BF040A0021014BD886704700BF2F
:102CE000040A00210A4A4FF6FF710346B2F834C0C5
:102CF0008C4503D0002210461A60704792F83210BB
:102D0000012902D001201A6070470020704700BFDF
:102D1000040A0021064B93F83220012A06D0012232
:102D2000D98E104683F8322099867047002070476C
:102D3000040A0021014B1887704700BF040A0021D4
:102D4000074B0246B3F834C0198F8C4501D00020E0
:102D5000704793F832000028FAD0012013607047C2
:102D6000040A0021094B998E1A8F914201D000204C
:102D700070474FF6FF7193F832209986002AF6D0FB
:102D80000022012083F83220704700BF040A00218E
:102D9000064B998E1A8F914201D00120704793F80B
:102DA0003200B0FA80F04009704700BF040A0021E9
:102DB000704700BF034648B9094B4FF0010C086843
:102DC0008A88586003F804CB9A807047012800D0A5
:102DD0007047034A086889889372D06011827047EF
:102DE000400A002140B90C4A13781BB1506812897F
:102DF00008608A8018467047012809D1064A937AEC
:102E0000002BF7D0D068128A086018468A80704775
:102E100000231846704700BF400A002100B580EA31
:102E2000020C1A78087891F805E050404A7860441E
:102E300093F801C082EA0C0291F802C0024498782B
:102E40008CEA000CC8789444DA7850400A7900EB98
:102E50000C0193F804C0587982EA0C038EEA000250
:102E60000B44DA420CBF012000205DF804FB00BFD8
:102E700010B9054B18787047012802D1024B987A97
:102E800070470020704700BF400A00216E4B2DE9BB
:102E9000F0475A781C18013A94F802C1D2B2824223
:102EA0005A7036D168B393F8022162452FD00128B9
:102EB00027D093F80321624529D0022821D093F826
:102EC0000421624523D003281BD093F805216245D5
:102ED0001DD0042815D093F80621624517D0052887
:102EE0000FD093F80721624511D0062809D093F836
:102EF000082162450BD0072803D093F809216245C9
:102F000005D01A78013AD2B294451A7043D1BDE87F
:102F1000F0871101060100EB4000B71C82364FEA32
:102F2000400E881C82311D1853F800A0D8190EF5E8
:102F3000857ED5F80490D5F80880ED6843F807A0A1
:102F4000C0F80490C0F80880C560581853F8018094
:102F500002EB4201D0F804901A4487684900C56822
:102F6000981943F8068001F58571C0F804908760D0
:102F7000C56092F8020184F802015818595843F8C4
:102F80000E1003EB0E018088888092F83A21587861
:102F900084F83A2186E7C2EBC202CCEBCC0102F501
:102FA000A97201F5A9719C581A4458185C5091886F
:102FB00094795A78818084711978002AA7D093F87F
:102FC0000201884231D0012AA1D093F8030188423E
:102FD0002DD0022A9BD093F8040188422BD0032ADB
:102FE00095D093F80501884223D0042A8FD093F816
:102FF0000601884221D0052A89D093F8070188422A
:103000001FD0062A83D093F80801884217D0072AD8
:103010003FF47DAF93F809218A427FF478AF07220D
:10302000134483F802C1BDE8F0870022F8E70122CB
:10303000F6E70322F4E70222F2E70422F0E7062291
:10304000EEE70522ECE700BF540A0021F0B52B4D56
:1030500089B095F88A416E4605F5C671304622461C
:103060001BF0CCF854B13219002412F8013D83F062
:10307000010396421C44E4B2F7D10CB909B0F0BD8B
:1030800002AE04EB4401013C3046C9B2FDF7D2FF69
:1030900095F894715FFA84FC19484FF0010E0CEB1F
:1030A0004C0CB44407F120030DEB03023B4612F82D
:1030B000201C71B195F88A110133B3FBF1F201FBC9
:1030C000123303F120026A4412F8204C002CF3D191
:1030D000DFB203EB4301BCF8004002F820EC44529D
:1030E00029449CF8022081F89A212B44B445ACF184
:1030F000030283F88CE1C1D09446D3E7540A00213F
:10310000EC0B002170B505468CB00C46002A52D05D
:103110002E4890F89431C11891F88C21002A4FD094
:1031200003EB430290F88AC101334FF0000E0244D2
:1031300092F89861E670B3FBFCF60CFB163380F84E
:10314000943192F89931237192F89A31637181F830
:103150008CE190F8B83143B36379EC4603F03F0358
:1031600043F0400363718DF81D30002328680693F7
:103170008DF81C306968AA68CDE90433E3788DF8CE
:103180001F3023798DF81E30EB68ACE80F006846DD
:103190001AF018FE9DF82F109DF82E209DF82D3066
:1031A00021706270A3700CB070BD094900F5D87031
:1031B00003F0CAFAD0E703216018FDF73BFFCBE725
:1031C0004FF480712820FDF7C1FC00BF540A002194
:1031D0004D300001044B5A78824203D9184490F8CC
:1031E0004A01704700207047540A0021044B5A7866
:1031F000824203D9184490F842017047002070477A
:10320000540A0021064B00224FF461711A8083F8A2
:10321000B92183F8BA21A3F8BC1183F8B82170470B
:10322000540A0021014B83F8BA017047540A002167
:10323000014B93F8BA017047540A0021D34B2DE992
:10324000F0431C78002C00F0368191F800C091F812
:10325000018093F8545193F8536188EA050593F877
:1032600055918CEA060691F804E0354493F85261D2
:10327000464035448E7886EA090909EB0507CD7882
:1032800093F8569185EA0909B9444F7993F8571193
:103290008EEA0101894493F85811794011EB090134
:1032A00000F00D81012C00F0068193F85B1193F87A
:1032B0005A9188EA01018CEA0909494493F8599125
:1032C00080EA0909494493F85C9186EA090989442E
:1032D00093F85D116940894493F85E118EEA01010B
:1032E000494493F85F9187EA090919EB010F00F04F
:1032F000E580022C00F0DF8093F8611193F8629171
:103300008CEA010188EA0909494493F8609180EA4E
:103310000909494493F8639186EA0909894493F8B5
:1033200064116940894493F865118EEA01014944AA
:1033300093F8669187EA090919EB010F00F0038100
:10334000032C00F0B88093F8681193F869918CEA27
:10335000010188EA0909494493F8679180EA09095B
:10336000494493F86A9186EA0909894493F86B11F4
:103370006940894493F86C118EEA0101494493F83D
:103380006D9187EA090919EB010F00F0DE80042C2A
:1033900000F0918093F86F1193F870918CEA01011D
:1033A00088EA0909494493F86E9180EA0909494479
:1033B00093F8719186EA0909894493F8721169407A
:1033C000894493F873118EEA0101494493F874918A
:1033D00087EA090919EB010F00F0BC80052C6AD0BF
:1033E00093F8761193F877918CEA010188EA09093C
:1033F000494493F8759180EA0909494493F8789112
:1034000086EA0909894493F879116940894493F857
:103410007A118EEA0101494493F87B9187EA090900
:1034200019EB010F00F09B80062C44D093F87D111E
:1034300093F87E918CEA010188EA0909494493F8DE
:103440007C9180EA0909494493F87F9186EA090949
:10345000894493F880116940894493F881118EEA78
:103460000101494493F8829187EA090919EB010F98
:103470007AD0072C1FD093F884118CEA010C93F8B2
:10348000851188EA010893F88311C444484093F8F1
:10349000861160444E4093F8871130444D4093F8B4
:1034A000881128448EEA010E93F8891186444F4012
:1034B00017EB0E0F45D00120BDE8F08301215878AD
:1034C0000028F8D093F802418C4240D00128F2D075
:1034D00093F803418C423FD00228ECD093F804418A
:1034E0008C423ED00328E6D093F805418C423DD073
:1034F0000428E0D093F806418C423AD00528DAD06F
:1035000093F807418C4237D00628D4D093F808416D
:103510008C4234D00728CED093F809418C4231D068
:103520000828C8D90821084602B110700B4493F846
:103530003A2193F84A01012A08BF40F00100BDE892
:10354000F0830721BBE70221B9E70321B7E7002198
:103550000846E9E70421B2E701210846E4E705212E
:10356000ADE702210846DFE70621A8E70321084668
:10357000DAE704210846D7E705210846D4E7062103
:103580000846D1E707210846CEE700BF540A0021CC
:103590002DE9F84FCA4C174698462578002D00F0C3
:1035A0004A810E7894F853A194F852C186EA0A0A27
:1035B00091F801E080EA0C0C91F80290CA78E2449C
:1035C00094F854C10B798EEA0C0C94F858B1E2448B
:1035D00094F855C189EA0C0CD44494F856A182EAB7
:1035E0000A0AD44494F857A183EA0A0AE24491F8FB
:1035F00005C08CEA0B0B1BEB0A0A00F02581012D9C
:1036000000F0608194F85BA18EEA0A0B94F85AA14D
:1036100086EA0A0ADA4494F859B180EA0B0BDA44D4
:1036200094F85CB189EA0B0BDA4494F85DB182EA54
:103630000B0BDA4494F85EB183EA0B0BDA4494F88E
:103640005FB18CEA0B0B1BEB0A0F00F0A981022D76
:1036500000F0388194F862A18EEA0A0B94F861A117
:1036600086EA0A0ADA4494F860B180EA0B0BDA447D
:1036700094F863B189EA0B0BDA4494F864B182EAF6
:103680000B0BDA4494F865B183EA0B0BDA4494F837
:1036900066B18CEA0B0B1BEB0A0F00F08381032D44
:1036A00000F0108194F868A186EA0A0B94F869A1E9
:1036B0008EEA0A0ADA4494F867B180EA0B0BDA441E
:1036C00094F86AB189EA0B0BDA4494F86BB182EA98
:1036D0000B0BDA4494F86CB183EA0B0BDA4494F8E0
:1036E0006DB18CEA0B0B1BEB0A0F00F05D81042D12
:1036F00000F0E88094F86FA186EA0A0B94F870A1B4
:103700008EEA0A0ADA4494F86EB180EA0B0BDA44C6
:1037100094F871B189EA0B0BDA4494F872B182EA39
:103720000B0BDA4494F873B183EA0B0BDA4494F888
:1037300074B18CEA0B0B1BEB0A0F00F03781052DDF
:1037400000F0C08094F876A186EA0A0B94F877A17D
:103750008EEA0A0ADA4494F875B180EA0B0BDA446F
:1037600094F878B189EA0B0BDA4494F879B182EADB
:103770000B0BDA4494F87AB183EA0B0BDA4494F831
:103780007BB18CEA0B0B1BEB0A0F00F01181062DAD
:1037900000F0988094F87DA186EA0A0B94F87EA147
:1037A0008EEA0A0ADA4494F87CB180EA0B0BDA4418
:1037B00094F87FB189EA0B0BDA4494F880B182EA7D
:1037C0000B0BDA4494F881B183EA0B0BDA4494F8DA
:1037D00082B18CEA0B0B1BEB0A0F00F0EB80072D7C
:1037E00000F0EA8094F884114E4094F885118EEA36
:1037F000010E94F883117644484094F886110644EB
:1038000089EA01010E4494F887114A4094F888111E
:1038100032444B40134494F889218CEA020C1CEB8F
:10382000030F00F0D0806378072B40F2CE8007258D
:103830002846BDE8F88F6378072BF8D801232A467D
:10384000237040F2531349E055466378002B4FD064
:1038500094F80221AA4200F09F80012B48D094F8EE
:103860000321AA4200F09880022B41D094F8042151
:10387000AA4200F09180032B3AD094F80521AA4285
:1038800000F08A80042B33D094F80621AA4200F07D
:103890008380052B2CD094F80721AA427CD0062BDC
:1038A00026D094F80821AA4276D0072B20D094F88D
:1038B0000931AB420CBF122507252846BDE8F88F19
:1038C000540A00216378072BB1D86B1C072D237095
:1038D0007DD8C5EBC503EA0003F253130E68521BF3
:1038E000E6502344898822449980637882F8520103
:1038F0001E015A1C394604EB0309B01C62701022E9
:10390000204401F03BF906F1820010224146204498
:1039100001F034F91021404601F0C4F803461021AB
:10392000384689F8423101F0BDF86678002389F8FD
:103930004A01701E89F8025189F83A31C0B206B3C3
:1039400000F5A17224491E46224412F8013983F081
:1039500001038A423344DEB2F7D100F5A5701F4B54
:103960000022204410F8011981F0010198420A4414
:10397000D2B2F7D1012E04D8002A0CBF3346731CF3
:10398000DEB2002084F88A61054684F89401FFF7CE
:103990005DFB2846BDE8F88F12252846BDE8F88F64
:1039A000012552E7022550E703254EE704254CE7A1
:1039B00005254AE7062548E76378072B3FF638AF29
:1039C0000823237085E707253FE701352570692126
:1039D0002820FDF7BBF800BF950B00219D0B0021AF
:1039E000C94B1A78002A00F038812DE9F04191F88E
:1039F00000C04F7893F8544193F853517C4093F8AA
:103A000055818CEA050591F804E02C4493F8525155
:103A100045402C448D7885EA080808EB0406CC78EC
:103A200093F8568184EA0808B0444E7993F8571108
:103A30008EEA0101884493F85811714011EB080196
:103A400000F00D81012A00F0058193F85A1193F8D6
:103A50005B818CEA010187EA0808414493F85981A7
:103A600080EA0808414493F85C8185EA08088844A4
:103A700093F85D116140884493F85E118EEA01016C
:103A8000414493F85F8186EA080818EB010F00F0C3
:103A90002081022A00F0DE8093F8611193F86281A0
:103AA0008CEA010187EA0808414493F8608180EAC2
:103AB0000808414493F8638185EA0808884493F82C
:103AC00064116140884493F865118EEA0101414414
:103AD00093F8668186EA080818EB010F00F0FB8076
:103AE000032A00F0B78093F8681193F869818CEA93
:103AF000010187EA0808414493F8678180EA0808D1
:103B0000414493F86A8185EA0808884493F86B1168
:103B10006140884493F86C118EEA0101414493F8A6
:103B20006D8186EA080818EB010F00F0D680042AA0
:103B300000F0908093F86F1193F870818CEA010186
:103B400087EA0808414493F86E8180EA08084144F6
:103B500093F8718185EA0808884493F872116140EE
:103B6000884493F873118EEA0101414493F87481FB
:103B700086EA080818EB010F00F0B380052A69D027
:103B800093F8761193F877818CEA010187EA0808A7
:103B9000414493F8758180EA0808414493F878819C
:103BA00085EA0808884493F879116140884493F8BD
:103BB0007A118EEA0101414493F87B8186EA080874
:103BC00018EB010F00F09180062A43D093F87D1185
:103BD00093F87E818CEA010187EA0808414493F852
:103BE0007C8180EA0808414493F87F8185EA0808CF
:103BF000884493F880116140884493F881118EEADB
:103C00000101414493F8828186EA080818EB010F0C
:103C10006FD0072A1ED093F884218CEA020C93F807
:103C20008521574093F88321BC44504093F8862166
:103C30006044554093F887212844544093F88821E4
:103C400020448EEA020E93F889218644564016EBF2
:103C50000E0F3CD00020BDE8F081104670470A46A8
:103C600058780028F7D093F80211914237D00128F4
:103C7000F0D093F80311914235D00228EAD093F89E
:103C80000411914233D00328E4D093F805119142F6
:103C900031D00428DED093F8061191422DD00528AA
:103CA000D8D093F80711914229D00628D2D093F8A2
:103CB0000811914225D00728CCD093F809319342BE
:103CC000C8D10720FFF7E2F80120BDE8F081072204
:103CD000C6E70122C4E70222C2E70322C0E70020B0
:103CE000F0E70422BCE70120ECE70522B8E7022058
:103CF000E8E70622B4E70320E4E70420E2E7052032
:103D0000E0E70620DEE700BF540A0021084B5878A0
:103D1000013840B2002809DB10B5C4B22046FFF7D5
:103D2000B5F8601E40B2431CF7D110BD704700BF0C
:103D3000540A0021014B83F8B9017047540A00214D
:103D4000014B93F8B9017047540A0021421E4AF210
:103D5000B711034692B28A4204D8034A0120A2F85E
:103D6000BC31704700207047540A0021014BB3F862
:103D7000BC017047540A0021C74B2DE9F0431F785E
:103D8000002F00F0338191F800C04E7893F8542151
:103D900093F8534172408D788CEA040493F855915E
:103DA00093F85681224493F8524185EA090991F823
:103DB00004E044402244CC7849794A4484EA080823
:103DC00008EB020993F857818EEA080202EB090812
:103DD00093F858214A4012EB080200F00A81012FA3
:103DE00000F0048193F85B2193F85A8172408CEAC9
:103DF0000808424493F8598180EA0808424493F83D
:103E00005C8185EA0808904493F85D216240904403
:103E100093F85E218EEA0202424493F85F8181EAC0
:103E2000080818EB020F00F01C81022F00F0DE8062
:103E300093F8612193F862818CEA020286EA08080D
:103E4000424493F8608180EA0808424493F8638111
:103E500085EA0808904493F864216240904493F8FE
:103E600065218EEA0202424493F8668181EA0808DD
:103E700018EB020F00F0F780032F00F0B78093F8E3
:103E8000682193F869818CEA020286EA08084244B4
:103E900093F8678180EA0808424493F86A8185EACA
:103EA0000808904493F86B216240904493F86C2189
:103EB0008EEA0202424493F86D8181EA080818EB09
:103EC000020F00F0D480042F00F0908093F86F214F
:103ED00093F870818CEA020286EA0808424493F85B
:103EE0006E8180EA0808424493F8718185EA0808E7
:103EF000904493F872216240904493F873218EEAC3
:103F00000202424493F8748181EA080818EB020F18
:103F100000F0B180052F69D093F8762193F877816E
:103F20008CEA020286EA0808424493F8758180EA26
:103F30000808424493F8788185EA0808904493F889
:103F400079216240904493F87A218EEA0202424439
:103F500093F87B8181EA080818EB020F00F08F804C
:103F6000062F43D093F87D2193F87E818CEA0202DC
:103F700086EA0808424493F87C8180EA08084244B3
:103F800093F87F8185EA0808904493F88021624085
:103F9000904493F881218EEA0202424493F8828190
:103FA00081EA080818EB020F6DD0072F1ED093F896
:103FB00084218CEA020C93F88521564093F88321E2
:103FC000B444504093F886216044554093F88721CB
:103FD0002844544093F8882120448EEA020E93F836
:103FE00089218644514011EB0E0F38D00820BDE8DE
:103FF000F08310465A78002AF8D093F802118142D3
:1040000033D0012AF2D093F80311814231D0022A31
:10401000ECD093F8041181422FD0032AE6D093F814
:10402000051181422DD0042AE0D093F80611814277
:104030002BD0052ADAD093F80711814227D0062A1F
:10404000D4D093F80811814223D0072ACED093F818
:104050000931834214BF08200720BDE8F083072000
:10406000C8E70120C6E70220C4E70020BFE703201D
:10407000C0E70120BBE70420BCE70220B7E705202A
:10408000B8E70320B3E70620B4E70420AFE7052034
:10409000ADE70620ABE700BF540A002110B40D4C79
:1040A0006378834202D8002010BC7047204490F807
:1040B0000231C3EBC303E01803F2531390F852012B
:1040C0000870E118E358012010BC13608B889380BE
:1040D000704700BF540A002170B506460D4615F022
:1040E000C7FD14F0EDFA0A4B93F8B94114B15978B1
:1040F00011B90C46204670BD981C82333246002D03
:1041000008BF184614F0A8FA14F000FB204670BD52
:10411000540A002108B514F00FFB08B9082008BDA7
:10412000BDE8084014F03EBB14F006BB8C460246C6
:10413000012108B5054B03EB0C1303F1820014F0C9
:104140008BFABDE8084014F0E1BA00BF540A002120
:10415000074B10B593F8B94114B1597811B90C4611
:10416000204610BD0246981C14F076FA204610BD79
:10417000540A00212DE9F0474C4D1F466B788342CD
:104180003ED92B188846064693F842A18AF00101D1
:10419000B8F1000F32D093F84A317BBB41F00209ED
:1041A000002F57D001F1010A95F89431002A65D00B
:1041B000EA181C4692F88C217AB3013395F88A41AB
:1041C000BAF1010FB3FBF4F204FB1234E4B205D0F0
:1041D0002B194FF0010A93F88C31F3B119F0010F4C
:1041E00009F002043DD16CB105EB06103A46414698
:1041F0000230FEF787FF4846BDE8F0872FB969BB5C
:104200004FF000094846BDE8F08795F89431002941
:10421000F6D04FF00109CA46C8E702F0DFFD04F10D
:10422000010C04EB44032A19010A95F88A412B4436
:1042300083F89801000C83F8991183F89A01BCFB6C
:10424000F4F304FB13C401239A45E4B282F88C31E1
:10425000BED1C3E70029C7D0022402E03C464FF09C
:10426000010906EB46013A4605EB061005EB410154
:10427000823001F58571FEF745FFB4E7EA1892F840
:104280008C1195F88A2161B10133BAF1010FB3FBAA
:10429000F2F102FB1133A1D02B4493F88C31002BA7
:1042A0009CD149F004094846BDE8F087540A002132
:1042B000F8B506462D4D08BB687848B10024234662
:1042C000EA1892F842212AB10134E3B28342F7D3CB
:1042D0000120F8BD03EB4301013405EB0313324623
:1042E00005EB410103F1820001F58571FEF70AFF3C
:1042F0006878E3B28342E3D30120EAE76878421E9C
:10430000D2B238B302F5A17205F241114FF0000CA0
:104310002A4412F8013983F00103914263445FFAA1
:1043200083FCF6D195F88A717A1ED2B2D7B1DFF844
:1043300040E0002172441378964502F1FF3283F089
:1043400001031944C9B2F6D1791AC9B28C45B4D95E
:104350000020F8BD95F88A717A1ED2B2002FB7D02E
:104360008446E4E7BCF1000FA8D0F1E7540A00212D
:10437000E00B00211F4B30B55A788DB0824203D933
:104380001A1892F842411CB1002420460DB030BDED
:1043900000010D46EC46069482308DF81C4003EB7C
:1043A000000E1858CB78DEF80820DEF804108DF8DF
:1043B0001F30DEF80C30CDE90444ACE80F002A7958
:1043C00068466B798DF81E208DF81D3019F0FAFCC7
:1043D0002A789DF82F309A42D7D16A789DF82E30EE
:1043E0009A42D2D1AC789DF82D30E41AB4FA84F414
:1043F0006409CAE7540A0021084B5A7882420AD954
:104400001A1892F8422132B900EB400003EB400049
:1044100000F5857070470020704700BF540A0021E6
:10442000064B5A78824206D9184490F83A01B0FAFD
:1044300080F0400970470020704700BF540A0021F7
:104440002DE9F0470C46054606211746204600F0A8
:1044500029FB064650B1DA48427822B1394600F5C8
:104460009D7019F041FF3046BDE8F087D44B93F8BA
:104470000080B8F1000FF6D0207894F801E093F8AE
:10448000542193F853118EEA020294F802C041407D
:1044900093F855A193F856910A4493F852118CEA77
:1044A0000A0A69400A44E178524481EA090909EBA1
:1044B000020A227993F85791647982EA0909D14472
:1044C00093F858A184EA0A0A1AEB090F00F05B81FD
:1044D000B8F1010FC7D093F85A9193F85BA180EA25
:1044E00009098EEA0A0AD14493F859A185EA0A0A11
:1044F000D14493F85CA18CEA0A0ACA4493F85D910E
:1045000081EA0909CA4493F85E9182EA0909D14413
:1045100093F85FA184EA0A0A1AEB090F00F03581CB
:10452000B8F1020F9FD093F8619193F862A180EAED
:1045300009098EEA0A0AD14493F860A185EA0A0AB9
:10454000D14493F863A18CEA0A0ACA4493F86491AF
:1045500081EA0909CA4493F8659182EA0909D144BC
:1045600093F866A184EA0A0A1AEB090F00F00F819A
:10457000B8F1030F3FF477AF93F8689193F869A10E
:1045800080EA09098EEA0A0AD14493F867A185EA0C
:104590000A0AD14493F86AA18CEA0A0ACA4493F839
:1045A0006B9181EA0909CA4493F86C9182EA09097E
:1045B000D14493F86DA184EA0A0A1AEB090F00F0BE
:1045C000EA80B8F1040F3FF44EAF93F86F9193F87F
:1045D00070A180EA09098EEA0A0AD14493F86EA113
:1045E00085EA0A0AD14493F871A18CEA0A0ACA44FE
:1045F00093F8729181EA0909CA4493F8739182EAA7
:104600000909D14493F874A184EA0A0A1AEB090F44
:1046100000F0C580B8F1050F3FF425AF93F876910F
:1046200093F877A180EA09098EEA0A0AD14493F83F
:1046300075A185EA0A0AD14493F878A18CEA0A0A9E
:10464000CA4493F8799181EA0909CA4493F87A91A6
:1046500082EA0909D14493F87BA184EA0A0A1AEB99
:10466000090F00F0A080B8F1060F3FF4FCAE93F8FC
:104670007D9193F87EA180EA09098EEA0A0AD14465
:1046800093F87CA185EA0A0AD14493F87FA18CEAC9
:104690000A0ACA4493F8809181EA0909CA4493F846
:1046A000819182EA0909D14493F882A184EA0A0A35
:1046B0001AEB090F7BD0B8F1070F3FF4D4AE93F893
:1046C000848180EA080093F885818EEA080E7044A0
:1046D00093F883E185EA0E05054493F886018CEA98
:1046E000000C93F887016544414093F88801294400
:1046F00042400A4493F889114C40D4427FF4B3AE4F
:1047000007215A78002A3FF4AEAE93F8020188429E
:104710003FD0012A3FF4A7AE93F8030188423CD072
:10472000022A3FF4A0AE93F80401884239D0032A4C
:104730003FF499AE93F80501884236D0042A3FF43D
:1047400092AE93F80601884233D0052A3FF48BAE2F
:1047500093F8070188422ED0062A3FF484AE93F8DE
:104760000801884229D0072A3FF47DAE93F8092139
:104770008A427FF478AE07221344012683F83A7107
:104780003046BDE8F0873146BBE70121B9E7022199
:10479000B7E70022F0E70321B3E70122ECE70421A9
:1047A000AFE70222E8E70521ABE70322E4E70621B1
:1047B000A7E70422E0E70522DEE70622DCE700BFE8
:1047C000540A0021002342F2107CA0F84C204364DC
:1047D0004B1E0CFB0232B2FBF1F18164704700BF4B
:1047E00070B50D4600210646FDF77CF8686018B1EB
:1047F000002318462B7070BD044601213046FDF79A
:1048000071F8686018B1012320462B7070BD02203A
:1048100070BD00BF38B504460D46B9B3012902D0BA
:1048200002295DD038BDC36900254549B0F8FE00B6
:10483000D4F8EC20194403FB00F003FB02F2A4F8C7
:10484000F65284F8EB52A4F8FA50B1FBF3F1B0FB46
:10485000F3F0B2FBF3F2C4F8F01040F6B831A4F86C
:10486000FE0042F21070C4F8EC20A4F8F410591EB7
:10487000E28C00FB0211334AB2FBF3F2B1FBF3F31B
:104880000132A4F8FC30A4F8022138BD4FF47A724A
:1048900019F02AFD49230122042184F81B316FF00D
:1048A0003B0384F8CD20072284F81D31FE232B2002
:1048B00084F81C1184F81E217F21234A84F8563184
:1048C000202384F81F5184F8205184F8215184F862
:1048D0001A0184F8C110C4F8B02084F86C3338BDD4
:1048E0000023D0F8BC23C16942F21075B0F8C203AE
:1048F000A4F8FA30B4F8FE3001FB03F3B3FBF2F393
:10490000A4F8FE30531E05FB0030B0FBF2F0A4F813
:10491000FC00D4F8EC0000FB01F1B1FBF2F1C4F8AB
:10492000EC100849B1FBF2F10131A4F80211B4F81E
:10493000F41005FB0133B3FBF2F3C4F8F03038BDDB
:104940007FC3C901005A620200E0FCFF38B504468B
:104950000D4689B3012902D0022957D038BDC36959
:10496000D4F8EC10414A03FB01F1B0F8FE001A4400
:1049700003FB00F0B2FBF3F2B1FBF3F1B0FBF3F099
:10498000C4E93B1240F6B831E28CA4F8FE0042F2D2
:104990001070A4F8F4100021A4F8FA10591E00FBBE
:1049A0000211334AB2FBF3F2B1FBF3F30132A4F884
:1049B000FC30A4F8022138BD4FF45A7219F094FC6F
:1049C00049230122042184F81B316FF03B0384F852
:1049D000CD20072284F81D31FE232B2084F81C11E2
:1049E00084F81E217F21234A84F85631202384F83D
:1049F0001F5184F8205184F8215184F81A0184F859
:104A0000C110C4F8B02084F8013338BD0023D0F8B9
:104A10002823C16942F21075B0F82E03A4F8FA30C9
:104A2000B4F8FE3001FB03F3B3FBF2F3A4F8FE305D
:104A3000531E05FB0030B0FBF2F0A4F8FC00D4F8E4
:104A4000EC0000FB01F1B1FBF2F1C4F8EC100849F5
:104A5000B1FBF2F10131A4F80211B4F8F41005FB36
:104A60000133B3FBF2F3C4F8F03038BD7FC3C901A2
:104A7000005A620200E0FCFF70B5047934F01F04B4
:104A80000ED1451E061D15F8010F02F0FDF9044474
:104A9000B542E4B2F7D1012C94BF0020012070BDD3
:104AA000002070BD002964D04B1E062B00B562D9D2
:104AB0008B0800F1040E02464FF0000C013BDBB204
:104AC0000EEB830E52F8043B724543EA0C0CF9D10D
:104AD000CCF30723CCF307424CEA0303134301F062
:104AE000FC0243EA1C6331F0FC0CDBB23CD010F852
:104AF00002C043EA0C0302F1010C5FFA8CFC614531
:104B000032D910F80CC043EA0C0302F1020C5FFA30
:104B10008CFCDBB2614527D910F80CC043EA0C03CA
:104B200002F1030C5FFA8CFC61451DD910F80CC032
:104B300043EA0C0302F1040C5FFA8CFC614513D9C3
:104B400010F80CC043EA0C0302F1050C5FFA8CFC70
:104B5000614509D9063210F80CC0D2B243EA0C0301
:104B6000914201D9825C1343B3FA83F040095DF8A6
:104B700004FB0120704700221346B8E762B102F13E
:104B8000FF3C0A44431E5FFA8CF1084412F8011DF1
:104B900003F8011F9842F9D1704700BF0D2900F2B8
:104BA0008380DFE801F00D11171D232939454B5192
:104BB000585E67072A3A042A8CBF002001207047FC
:104BC000B2FA82F040097047073A012A8CBF0020F0
:104BD000012070470B3A022A8CBF00200120704749
:104BE0000E3A012A8CBF002001207047113A0C2A8E
:104BF0008CBF002001207047002B41D1A2F113038C
:104C0000012B49D990F86230002B47D0143A082A7A
:104C10008CBF002001207047A2F11103032B3BD968
:104C200090F862001D2A8CBF002000F00100704740
:104C3000A2F10400B0FA80F040097047A2F101002F
:104C4000B0FA80F04009704703BBA2F10500B0FA4A
:104C500080F0400970471E3A022A8CBF00200120D4
:104C60007047A2F121002F2A18BF062894BF012007
:104C700000207047A2F12900B0FA80F04009704787
:104C8000123A0B2A8CBF002001207047A2F11000BD
:104C9000B0FA80F04009704701207047183A042AA2
:104CA0008CBF00200120704700207047F8B50446F3
:104CB0000D46D0E9046717F01FFE08B3DDB1236984
:104CC00062699B1B62EB0702012B72F1000114DB8E
:104CD0006FF001000021984271EB020215DB6A1EA1
:104CE0001344B3FBF5F303FB05F5AE191D4647F17D
:104CF0000007C4E904672846F8BD00252846F8BD2A
:104D00004FF4E2712920FBF721FF4FF4E7712920CE
:104D1000FBF71CFF11F00C030CD04B0712D44FF41F
:104D2000747340229842194612D9401A90FBF2F04F
:104D300080B2704702290DD0702809D97038C0F3AD
:104D4000CF00704740F20E23102298421946ECD84B
:104D5000002070473C28FBD93C38C0F38F007047D7
:104D600003460868D8667047013908B5072914D882
:104D7000DFE801F0071013041313130440F6A660D4
:104D800008BD034640F2E24240F6C410002B08BFC3
:104D9000104608BD40F6C41008BD40F23F2129204E
:104DA000FBF7D4FE80F8741011F0A6BD41F27073C9
:104DB000A0F57A729A4205D9064BA3FB0030C0F3E6
:104DC0008F207047044BA3FB0030800900F5506032
:104DD00080B270475917B7D1D34D62106FF450634A
:104DE000C318062B04D940F2E24303FB00F07047DE
:104DF0004FF47A73A0F5506003FB00F0704700BFDA
:104E000041F64B53994208D9C0EB401300EB8300A5
:104E100000EB8000400080B2704700EB800000EBA8
:104E200080008000704700BF41F64B53994205D97E
:104E3000054BA3FB0030C0F387207047034BA3FB57
:104E40000030C0F3471070475917B7D11F85EB5199
:104E500041F64B53994294BF642340F2E24303FB73
:104E600000F0704741F64B53994205D9054BA3FB1F
:104E70000030C0F38F207047034BA3FB0030C0F31A
:104E80004F1070475917B7D11F85EB5141F64B535F
:104E9000994209D9094B40F2E242A3FB00139B0A55
:104EA00002FB1303C01A7047054B6422A3FB0013D7
:104EB0005B0902FB1303C01A704700BF5917B7D133
:104EC0001F85EB51A0F5C470884294BF091A491A96
:104ED0001868012910B400EB510494BF0020012090
:104EE0001C60136810BCA3EB51011160704700BF38
:104EF000074B93F900301844142804DC10F17F0F9D
:104F000003DB40B27047142070476FF07E0070479B
:104F1000120C002108B514F0DBF8084B93F90030AF
:104F20001844142804DC10F17F0F03DB40B208BDE5
:104F3000142008BD6FF07E0008BD00BF120C0021D8
:104F400000B583B07F230DF107008DF8073014F012
:104F50009DFE20B99DF9070003B05DF804FB0A4AE5
:104F60009DF907305078404240B21844142806DCBE
:104F700010F17F0F05DB40B203B05DF804FB142095
:104F8000EAE76FF07E00E7E7120C0021014B187092
:104F900059707047120C0021024B00221A705A708F
:104FA000704700BF120C0021014B93F900007047BD
:104FB000120C0021014B93F901007047120C0021E3
:104FC0000346074A12783AB9064901220868097966
:104FD000186010461971704700221046704700BFD4
:104FE000140C002110000021034606494FF0FF0C6D
:104FF000054A00681B7982F800C008600B71002325
:105000001370704710000021140C00210A4B82B06D
:1050100093E8030000908DF8041002AB074A4FF0AC
:10502000FF0C13E90300064B1060117183F800C0F8
:1050300000221A7002B07047E8B902011000002186
:10504000140C00210B68002270B5C0F80130054631
:105050000B79441C861DC27203F01F03437114F8C0
:10506000010B01F011FF2071B442EB7A1844E87291
:10507000F5D170BD81EA1141844689B24A4008B534
:10508000D3B293FAA3F3120A92FAA2F2120E1B0EF3
:1050900043EA022303EB03130B449AB2DBB293FA05
:1050A000A3F3120A92FAA2F2120E1B0E43EA022393
:1050B00003EB03130B449AB2DBB293FAA3F3120A85
:1050C00092FAA2F2120EA0481B0E43EA022303EB4F
:1050D00003130B444B409BB2A0FB03201A1A00EBB6
:1050E0005200400900EBC00200EB82000122181AB6
:1050F000C0F3C40100F0070E614402FA0EF24978D1
:10510000114201D0C0B208BD9CF80B1001FB03F3A3
:105110009CF806104FEA134E1B140EF10100C2B2A8
:105120008A425BD9501AC2B29CF80730934280F091
:105130009A80D01AC2B29CF808309A4240F2D980C4
:10514000D01AC2B29CF809309A420AD9D01AC2B217
:105150009CF80A30934280F0138199214620FBF796
:10516000F5FC9CF80430D90705D5501E10F0FF025D
:1051700001D1032281E0980705D5501E10F0FF02EF
:1051800001D1032238E0590705D5501E10F0FF0267
:1051900001D103223BE0180705D5501E10F0FF0295
:1051A00001D103223BE0D90605D5501E10F0FF02C5
:1051B00001D103223BE0980605D5501E10F0FF02F6
:1051C00001D103223BE0590600F118811806BFD532
:1051D000501E10F0FF02BBD1032242E09CF80110E8
:1051E000C80703D5002B00F0108172468B0708D545
:1051F000501E10F0FF0204D1012000EBC200C0B22B
:1052000008BD480705D5501E10F0FF0201D102204D
:10521000F3E70B0705D5501E10F0FF0201D1032064
:10522000EBE7C80605D5501E10F0FF0201D104209F
:10523000E3E78B0605D5501E10F0FF0201D10520D3
:10524000DBE7480605D5501E10F0FF0201D106200D
:10525000D3E70B067FF568AF501E10F0FF027FF416
:1052600063AF0720C9E79CF8023013F0010106D0B4
:10527000501E10F0FF0202D10A460020BDE7980739
:1052800005D5501E10F0FF0201D10122B4E75907E5
:1052900005D5501E10F0FF0201D10122B7E7180713
:1052A00005D5501E10F0FF0201D10122B7E7D90643
:1052B00005D5501E10F0FF0201D10122B7E7980674
:1052C00005D5501E10F0FF0201D10122B7E75906A3
:1052D00005D5501E10F0FF0201D10122B7E71806D4
:1052E0007FF529AF501E10F0FF027FF424AF01229A
:1052F000B7E79CF80330D90705D5501E10F0FF0220
:1053000001D10222B9E7980705D5501E10F0FF021F
:1053100001D1022270E7590705D5501E10F0FF0297
:1053200001D1022273E7180705D5501E10F0FF02C5
:1053300001D1022273E7D90608D5501E10F0FF02F2
:1053400004D1022273E700BF4D91CFBA980605D56C
:10535000501E10F0FF0201D1022270E7590605D558
:10536000501E10F0FF0201D1022270E718067FF5EF
:10537000E9AE501E10F0FF027FF4E4AE022270E7A7
:105380009CF80530D90705D5501E10F0FF0201D159
:10539000042272E7980705D5501E10F0FF0201D1D4
:1053A000042229E7590705D5501E10F0FF0201D14C
:1053B00004222CE7180705D5501E10F0FF0201D17A
:1053C00004222CE7D90613D4980603D5501E10F0FA
:1053D000FF021CD0590603D5501E10F0FF0218D052
:1053E0001B067FF5BAAE012A7FF4B7AE042238E778
:1053F000501E10F0FF02E7D1042218E7501E10F0F3
:10540000FF027FF4E3AE032221E71A4635E70422C8
:1054100015E704221BE700BF90F830C00CF1FF3302
:10542000242B14D88AB110B5044690F8250080B119
:10543000012853D1A28A04F12500096AFFF71AFE58
:105440000346002084F8333010BD10467047122008
:10545000704794F8311094F8323002FB0132994BC6
:1054600083FB0213012113445B1103EBC30E03EB17
:105470008E03D21AD2B204EBD20384F8322093F80E
:1054800026E002F0070301FA03F31EEA030F65D1D9
:1054900094F82B10B2FBFCF30CFB1322D2B2531C7A
:1054A000DBB28B425DD95B1ADBB294F82C209A42B6
:1054B00080F093809B1ADBB294F82D20934240F247
:1054C000CA809B1ADBB294F82E20934240F2FC80F3
:1054D0009B1ADBB294F82F209A4201D21F2010BDF4
:1054E00094F82A20D10704D5013B13F0FF0300F004
:1054F0004C81910704D5013B13F0FF0300F0478175
:10550000510704D5013B13F0FF0300F0428111075E
:1055100004D5013B13F0FF0300F04581D10604D50B
:10552000013B13F0FF0300F04081910604D5013BDD
:1055300013F0FF0300F03B81510604D5013B13F04B
:10554000FF0300F036811206C8D5012BC6D1042313
:10555000072202EBC30384F8333010BD84F83320F4
:1055600010BD94F8261011F0010F03D0002A00F0AE
:10557000F38013468A0704D5013B13F0FF0300F0C4
:10558000DA804A0704D5013B13F0FF0300F0D68010
:105590000A0704D5013B13F0FF0300F0D280CA06CE
:1055A00004D5013B13F0FF0300F0CE808A0604D53A
:1055B000013B13F0FF0300F0CA804A0604D5013B0B
:1055C00013F0FF0300F0C6800A067FF56EAF013BC3
:1055D00013F0FF037FF469AFBAE794F8272012F0C5
:1055E000010104D0013B13F0FF0300F0B8809107E4
:1055F00004D5013B13F0FF0300F09C80510704D554
:10560000013B13F0FF0300F09880110704D5013B24
:1056100013F0FF0300F09480D10604D5013B13F092
:10562000FF0300F09080910604D5013B13F0FF03C7
:1056300000F08C80510604D5013B13F0FF0300F00D
:10564000888012067FF538AF013B13F0FF037FF42B
:1056500033AF01237CE794F82820D10703D5013B21
:1056600013F0FF037DD0910703D5013B13F0FF0337
:1056700079D0510703D5013B13F0FF0375D0110713
:1056800003D5013B13F0FF0371D0D10603D5013BD5
:1056900013F0FF0371D0910603D5013B13F0FF0314
:1056A0006DD0510603D5013B13F0FF0379D01206EC
:1056B0007FF509AF013B13F0FF037FF404AF022332
:1056C00046E700BFA7C867DD94F82920D10703D5B6
:1056D000013B13F0FF034CD0910703D5013B13F0BE
:1056E000FF0348D0510703D5013B13F0FF0348D017
:1056F000110703D5013B13F0FF0344D0D10603D5B6
:10570000013B13F0FF0346D0910603D5013B13F094
:10571000FF0342D0510603D5013B13F0FF033ED0F7
:1057200012067FF5D7AE013B13F0FF037FF4D2AE34
:1057300003230DE7012301220BE70123022208E7DF
:105740000123032205E70123042202E701230522A6
:10575000FFE601230622FCE603460022F9E60B469B
:10576000FBE70223F9E70223E5E70223E6E702234A
:10577000E7E70323F1E70323DDE70223E4E702235E
:10578000E5E70323DAE70323DBE70423E5E7042364
:10579000D1E70423D2E70323D6E70323D7E7032384
:1057A000D8E70223D6E70423CBE70423CCE704237E
:1057B000CDE70423CEE700BF4078704708B50378F3
:1057C00001F00F0223F00F0313430370082917D8C9
:1057D000DFE801F0080508050813080B10000C238A
:1057E000437008BD0623437008BD00220123C27028
:1057F000437008BD0E23437008BD2223437008BDCB
:10580000A8212A20FBF7A2F90B68C0F803308B8887
:10581000A0F80730704700BFD0F803300B60B0F835
:1058200007308B80704700BF0B68C0F809308B8849
:10583000A0F80D30704700BF8B01017803F04003E2
:1058400021F0400119430170704700BF0078C0F398
:1058500080107047037803F07F0343EAC11303709D
:10586000704700BF0078C009704700BF1F2A38B5D5
:1058700007D8144605460930063418F0BFFC6C7092
:1058800038BDEE212A20FBF761F900BF1F2A38B589
:1058900007D8144605460930063418F0AFFC6C7082
:1058A00038BD4FF488712A20FBF750F9027803467F
:1058B00002F00F02032A18D0052A14D190F820C054
:1058C000C27F90F8210042EA0C0293F822C0024302
:1058D00093F8230042EA0C0220F01F00024302D09A
:1058E0005A78222A08D0002070474078A0F10C0096
:1058F000B0FA80F04009704710B56FF45060B3F80B
:105900001920B3F8174002EB000C93F816E0BCF135
:10591000060F8CBF002001F0010088B9911F40F6EE
:105920007A4C89B261450AD80EF1FF31072906D8B1
:10593000944298BF964534BF0120002000D310BD8B
:10594000B3F81B20B2F5FA7F0AD2B3F81D0040F677
:1059500076430A3880B298428CBF0020012010BDE7
:10596000002010BD38B5002900F08A8094461A4600
:10597000C37813F03F0479D0BCF1070F76D8DFE885
:105980000CF00C132136282F043D90F804E01EF093
:10599000400F6BD0172305253AE00379DD0765D565
:1059A0004FF0010E052355E003799C075ED503F007
:1059B0000103002B15BF4FF0070E4FF0010E0B2314
:1059C000052347E090F804E01EF0040F4ED00523B5
:1059D00031E090F804E01EF0100F47D0052320E0DE
:1059E00090F804E01EF0200F40D0634614E090F8D9
:1059F00004E01EF0080F39D0052317E090F804E00A
:105A00000EF04003002B15BF18231723062505258C
:105A10001EF0200F08BF2B461EF0100F01D00333DD
:105A2000DBB21EF0080F01D00233DBB21EF0040F10
:105A300001D00133DBB21EF0020F01D00633DBB21E
:105A40001EF0010F1CBF0633DBB2BCF1070FA3F140
:105A5000040E09D002EB0E0CBCF13F0F0BDC184416
:105A6000BDE8384018F0CABB7445F3DA40F219318A
:105A70002A20FBF76BF840F21A312A20FBF766F870
:105A80004FF446712A20FBF761F800BFC3788446C3
:105A900013F03F0008D000B5072909D8DFE801F06E
:105AA000131A23382A310B3F70471A1F90425FDACE
:105AB00000205DF804FB9CF804E01EF04003F7D0E2
:105AC0001723052235E09CF8042012F00102EFD0E4
:105AD00005234DE09CF8043013F00202E8D0DB0708
